:020000040800F2
:10000000005000205D4300085D4200085F42000888
:1000100061420008634200086542000800000000D9
:100020000000000000000000000000007135000822
:10003000674200080000000011360008553600082D
:10004000A5430008A5430008A5430008A5430008F0
:10005000A5430008A5430008A5430008A5430008E0
:10006000A5430008A5430008A5430008694200080D
:10007000A543000879420008A5430008A5430008ED
:10008000A5430008A54300088942000899420008DA
:10009000A9420008A5430008A5430008B94200088A
:1000A000A5430008C5420008A5430008A543000871
:1000B000A5430008D5420008E5420008A543000812
:1000C000A5430008A5430008A5430008A543000870
:1000D000A5430008A5430008A5430008F542000811
:1000E00005430008A5430008A543000800000000E0
:1000F0000000000000000000000000000000000000
:0C01000000000000000000005FF808F1A3
:1001100010B5054C237833B9044B13B10448AFF341
:1001200000800123237010BD10000020000000009B
:100130001844000808B5034B1BB103490348AFF34B
:10014000008008BD000000001400002018440008D2
:1001500008B5074A136843F010031360032000F04A
:10016000CDFB002004F03EF803F06CFE002008BD3B
:1001700000200240034A1168034B1B780B441360B4
:10018000704700BF3019002000000020014B1868A4
:10019000704700BF301900207047704710B5044603
:1001A00003685A6812F0200F18D01A6812F0020F74
:1001B00014D0826A12F0100F03D1826A42F40072E6
:1001C00082629A6802F46022B2F5602F38D020462D
:1001D000FFF7E2FF23686FF012021A6023685A6883
:1001E00012F0800F22D01A6812F0040F1ED0A26AFB
:1001F00012F0100F03D1A26A42F40052A2629A6870
:1002000002F4E042B2F5E04F31D05A6812F4806F48
:1002100005D19A6802F46022B2F5602F24D02046FE
:1002200000F08CF923686FF00C021A6023685A689A
:1002300012F0400F03D01B6813F0010F28D110BD3E
:10024000227B002AC3D15A6822F020025A60A36A96
:1002500023F48073A362A36A13F4805FB7D1A36A07
:1002600043F00103A362B2E7227B002AD7D15A6888
:1002700022F080025A60A36A23F48053A362A36A27
:1002800013F4807FCBD1A36A43F00103A362C6E7D6
:10029000A36A43F48033A3622046FFF77EFF2368FE
:1002A0006FF001021A60CAE730B482B000230193F4
:1002B00090F82430012B00F08B800246012380F857
:1002C00024304B68062B29D80568686B03EB830341
:1002D000053B1F249C4020EA04000C6804FA03F349
:1002E00003436B630B68092B38D91568E86803EB87
:1002F00043031E3B07249C4020EA04008C6804FA58
:1003000003F30343EB600B68103B012B34D900204F
:10031000002382F8243002B030BC70470C2B0ED87A
:100320000568286B03EB8303233B1F249C4020EAD2
:1003300004000C6804FA03F303432B63D2E7056857
:10034000E86A03EB8303413B1F249C4020EA04003E
:100350000C6804FA03F30343EB62C3E715682869EA
:1003600003EB430307249C4020EA04008C6804FA52
:1003700003F303432B61C6E713681648834205D095
:10038000936A43F0200393620120C1E7986810F458
:10039000000F1BD1986840F4000098600B68102B88
:1003A00001D00020B4E70C4B1B680C49A1FB0313E0
:1003B0009B0C03EB83035900019102E0019B013B7D
:1003C0000193019B002BF9D10020A1E700209FE7BA
:1003D0000220A0E7002401400C00002083DE1B4324
:1003E00038B503689A6812F0010F01D1002038BDBA
:1003F00004469A6822F001029A60FFF7C7FE05469C
:1004000023689B6813F0010F0ED0FFF7BFFE401B5F
:100410000228F5D9A36A43F01003A362E36A43F00C
:100420000103E3620120E2E70020E0E700287FD03B
:1004300038B50446836A002B33D02046FFF7D0FF3F
:10044000A36A13F010036DD100286BD1A26A22F4C5
:10045000885222F0020242F00202A2626268E1695E
:100460000A43257B42EA4502A168B1F5807F21D08D
:1004700001291CD0217D01291FD02568696821F43C
:1004800069410B436B6021688D682A4B2B401343F5
:100490008B60A368B3F5807F20D0012B1ED0002194
:1004A0001FE0C36280F8243003F0EEFCC5E74FF490
:1004B0008073DFE74FF48073DCE735B9A169013958
:1004C00043EA413343F40063D7E7A16A41F02001D6
:1004D000A162E16A41F00101E162CEE72369013BDB
:1004E00019052568EB6A23F470030B43EB6223685C
:1004F0009968114B0B409A420BD0A36A23F0120368
:1005000043F01003A362E36A43F00103E3620120B6
:100510000DE00023E362A36A23F0030343F0010329
:10052000A36204E0A36A43F01003A362012038BD74
:1005300001207047FDF7E1FFFE0E1FFF7047002806
:1005400000F0A18038B5044690F82030D3B122687D
:10055000136823F002031360FFF718FE05462368B3
:100560005A6812F0020F10D0FFF710FE401B0A2845
:10057000F5D9636A43F400336362052384F82030BD
:10058000012038BD03F0EAFCE1E71A6842F00102FD
:100590001A60FFF7FBFD054623685A6812F0010F49
:1005A0000DD1FFF7F3FD401B0A28F5D9636A43F428
:1005B00000336362052384F820300120E1E7227EC6
:1005C000012A3DD01A6822F080021A60637E012B56
:1005D0003BD02268136823F040031360A37E012BF5
:1005E00039D02268136823F020031360E37E012BC7
:1005F00037D02268136843F010031360237F012B68
:1006000035D02268136823F008031360637F012B41
:1006100033D02268136823F004031360A368E268F0
:10062000134322691343626913436268013A2168E4
:100630001343CB6100206062012384F82030A0E7DF
:100640001A6842F080021A60C0E72268136843F01B
:1006500040031360C2E72268136843F0200313606D
:10066000C4E72268136823F010031360C6E722680A
:10067000136843F008031360C8E72268136843F067
:1006800004031360CAE70120704770477047704742
:1006900070477047704770477047704770477047A2
:1006A000704770472DE9F84F054603685C695F683D
:1006B0009E68D3F80C90D3F81080D3F818A014F0EB
:1006C000010F5AD016F0010F17D001229A6016F0D0
:1006D000020F08D116F0040F30D116F0080F07D022
:1006E0004FF4805B0BE0FFF7D0FF4FF0000B06E00C
:1006F000FFF7CEFF4FF0000B01E04FF0000B16F4B8
:10070000807F0BD02B684FF480729A6016F4007FC4
:1007100017D116F4806F18D04BF4005B16F4803FAD
:100720002DD02B684FF480329A6016F4003F16D11A
:1007300016F4802F17D04BF4004B20E04FF4006BE1
:10074000DDE72846FFF7A2FFE8E716F4006F02D0C6
:100750004BF4804BE2E72846FFF79BFFDEE7284695
:10076000FFF795FF0BE016F4002F02D04BF4803B0F
:1007700005E02846FFF78EFF01E04FF0000B14F074
:10078000080F07D019F0100F04D04BF4007B2B6832
:100790001022DA6014F0040F02D019F0080F60D1B3
:1007A00014F0020F04D02B68DB6813F0030F5FD145
:1007B00014F0400F07D018F0100F04D04BF4806BEA
:1007C0002B6810221A6114F0200F02D018F0080FC5
:1007D00052D114F0100F04D02B681B6913F0030FD3
:1007E00051D114F4003F02D017F0100F4FD114F480
:1007F000803F02D017F0080F50D114F4004F67D09B
:1008000017F0040F61D014F4807F04D01AF0010FA8
:1008100001D04BF0010B14F4007F04D01AF0020F4A
:1008200001D04BF0020B14F4806F04D01AF0040FC7
:1008300001D04BF0040B14F4006F46D01AF0700A8C
:1008400043D0BAF1300F48D02FD9BAF1500F47D06A
:10085000BAF1600F47D0BAF1400F31D14BF0400BE5
:100860002EE02B680822DA602846FFF715FF97E78D
:100870002846FFF710FF9BE72B6808221A612846DD
:10088000FFF70CFFA5E72846FFF707FFA9E72B684E
:1008900010225A602846FFF702FFA8E72B680822BB
:1008A0005A602846FFF7FCFEA7E7BAF1100F05D003
:1008B000BAF1200F04D14BF0100B01E04BF0080B04
:1008C0002A68936923F0700393612B6804225A60AD
:1008D000BBF1000F0AD1BDE8F88F4BF0200BEFE71A
:1008E0004BF0800BECE74BF4807BE9E76B6A43EA63
:1008F0000B036B622846FFF7D4FEECE7074AD36888
:1009000023F4E0631B041B0C000200F4E0601843B6
:1009100040F0BF6040F40030D060704700ED00E070
:1009200030B4174BDB68C3F30223C3F10704042C74
:1009300028BF04241D1D062D18D9033B4FF0FF3599
:1009400005FA04F421EA0401994005FA03F322EAC6
:100950000303194300280BDB0901C9B200F1604011
:1009600000F5614080F8001330BC70470023E5E7D4
:1009700000F00F000901C9B2024B1954F4E700BF9F
:1009800000ED00E014ED00E0002807DB00F01F029E
:10099000400901239340024A42F82030704700BFCB
:1009A00000E100E060B310B402460168154B0B444F
:1009B0001548A0FB03031B099B001364134BD3636F
:1009C000022382F82130086820F47F5020F03000A4
:1009D000536894682343D4682343146923435469B8
:1009E000234394692343D469234303430B600020CA
:1009F0009063012382F8213082F8200010BC7047F8
:100A000001207047F8FFFDBFCDCCCCCC00000240E8
:100A100008B590F82130022B03D004238363012012
:100A200008BD0268136823F00E03136002681368A0
:100A300023F0010313600368194A934214D014325F
:100A400093421FD0143293421ED0143293421ED0D0
:100A5000143293421ED01432934202D04FF080726F
:100A600003E04FF4801200E001220E4B5A60012394
:100A700080F82130002380F82030436B6BB1984719
:100A80000020CDE71022F0E74FF48072EDE74FF43D
:100A90008052EAE74FF48032E7E70020C0E700BF6A
:100AA000080002400000024038B5C36B1A680468B1
:100AB0002568016C04238B40134235D015F0040FD8
:100AC00032D0236813F0200F03D1236823F00403EE
:100AD00023600368434A934214D01432934218D0DF
:100AE0001432934217D01432934217D014329342E7
:100AF00017D01432934202D04FF0806203E04FF4DB
:100B0000800200E00422384B5A60C36A03B1984760
:100B100038BD4022F7E74FF48062F4E74FF480429B
:100B2000F1E74FF48022EEE702238B4013423CD0E2
:100B300015F0020F39D0236813F0200F06D1236877
:100B400023F00A032360012380F821300368254A3B
:100B5000934214D0143293421CD0143293421BD0CF
:100B6000143293421BD0143293421BD0143293425E
:100B700002D04FF0007203E04FF4001200E00222B6
:100B8000194B5A60002380F82030836A002BBFD0B5
:100B90009847BDE72022F3E74FF40072F0E74FF4E7
:100BA0000052EDE74FF40032EAE7082303FA01F1BF
:100BB0001142ADD015F0080FAAD0236823F00E0320
:100BC0002360026CC16B012303FA02F24A60836363
:100BD00080F82130002380F82030036B002B97D061
:100BE000984795E70800024000000240F0B482B048
:100BF00000263246A2E0002D5AD0012D00D1CE6849
:100C0000FF2B69D88446FF2B69D89500DCF800409B
:100C10000F27AF4024EA070406FA05F52C43CCF869
:100C200000404C6814F0805F00F087805F4CA5693D
:100C300045F00105A561A46904F001040194019C3B
:100C40009508AF1C5A4C54F8274002F00307BF0028
:100C50004FF00F0C0CFA07FC24EA0C0C554CA04288
:100C600043D004F58064A04200F0818004F58064E4
:100C7000A0427ED004F58064A04234D0042435E044
:100C80004D4FBD4214D00BD94C4FBD4210D007F58B
:100C90008037BD420CD0A7F58017BD42B0D107E028
:100CA000A7F58017BD4203D007F58037BD42A7D115
:100CB0008D687DB1012D08D044610826A0E7CE687B
:100CC00008369DE7CE680C369AE70461082697E758
:100CD000002695E7042693E700F1040C93E7A2F1C0
:100CE0000805AD0092E7032400E00024BC4044EA7C
:100CF0000C0402352E4F47F825404C6814F4803F11
:100D000039D02F4D2C681C432C604C6814F4003FE4
:100D100037D02B4D6C681C436C604C6814F4801FFA
:100D200035D0274DAC681C43AC604C6814F4001FF0
:100D300033D0234DEC682343EB6001320B6833FA68
:100D400002F430D00124944023409C42F5D14D68F8
:100D5000122DB7D094D8022DB1D07FF64CAF032D11
:100D6000B6D0112D7FF44CAFCE68043648E701248D
:100D7000BCE70224BAE7124D2C6824EA03042C6075
:100D8000C3E70F4D6C6824EA03046C60C5E70C4DA3
:100D9000AC6824EA0304AC60C7E7094DEC6824EAB8
:100DA0000303EB60C9E702B0F0BC704700100240DB
:100DB0000000014000080140000021100000311037
:100DC0000004014012B909040161704701617047D4
:100DD0007047000008B5054B5B69034200D108BDB0
:100DE000024B5861FFF7F4FFF9E700BF0004014030
:100DF00082B0084B1B68084AA2FB03235B0A00FB76
:100E000003F0019000BF019B5A1E0192002BF9D103
:100E100002B070470C000020D34D6210002800F093
:100E2000F58170B582B00446036813F0010F2CD031
:100E3000AB4B5B6803F00C03042B1DD0A84B5B6825
:100E400003F00C03082B12D06368B3F5803F41D048
:100E5000002B55D103F1804303F504331A6822F4C3
:100E600080321A601A6822F480221A6037E09C4BA4
:100E70005B6813F4803FE7D0994B1B6813F4003F85
:100E800003D06368002B00F0C381236813F0020FC6
:100E900076D0934B5B6813F00C0F5FD0904B5B6880
:100EA00003F00C03082B54D02369002B00F08A8038
:100EB0008C4B01221A60FFF769F90546884B1B68C5
:100EC00013F0020F75D1FFF761F9401B0228F5D925
:100ED0000320A0E1824A136843F4803313606368FF
:100EE00043B3FFF753F905467D4B1B6813F4003FEE
:100EF000CBD1FFF74BF9401B6428F5D903208AE1D9
:100F0000B3F5A02F09D0764B1A6822F480321A600C
:100F10001A6822F480221A60E1E703F18043A3F506
:100F20003C331A6842F480221A601A6842F4803214
:100F30001A60D4E7FFF72AF90546694B1B6813F4DA
:100F4000003FA2D0FFF722F9401B6428F5D9032007
:100F500061E1634B5B6813F4803FA5D1604B1B6874
:100F600013F0020F04D02369012B01D0012052E1BC
:100F70005B4A136823F0F803616943EAC103136015
:100F8000236813F0080F32D0A369002B5BD0564BB7
:100F900001221A60FFF7FAF80546514B5B6A13F01D
:100FA000020F21D1FFF7F2F8401B0228F5D90320E8
:100FB00031E14B4A136823F0F803616943EAC10346
:100FC0001360DDE7474B00221A60FFF7DFF80546A4
:100FD000434B1B6813F0020FD2D0FFF7D7F8401B2A
:100FE0000228F5D9032016E10120FFF701FF23684D
:100FF00013F0040F00F09880394BDB6913F0805F29
:1010000033D1374BDA6942F08052DA61DB6903F0A1
:1010100080530193019B0125344B1B6813F4807F9F
:1010200025D0E368012B36D0002B4CD103F180434F
:1010300003F504331A6A22F001021A621A6A22F0D6
:1010400004021A622CE0284B00221A60FFF79EF877
:101050000546234B5B6A13F0020FC8D0FFF796F8E2
:10106000401B0228F5D90320D5E00025D4E71F4A0C
:10107000136843F480731360FFF788F806461B4B30
:101080001B6813F4807FCCD1FFF780F8801B6428A5
:10109000F5D90320BFE0124A136A43F0010313623B
:1010A000E3687BB3FFF772F806460D4B1B6A13F03B
:1010B000020F38D1FFF76AF8801B41F2883398425B
:1010C000F3D90320A7E0052B12D0054B1A6A22F0B2
:1010D00001021A621A6A22F004021A62E0E700BFF3
:1010E0000010024000004242800442420070004072
:1010F0004C4B1A6A42F004021A621A6A42F0010268
:101100001A62CDE7FFF742F80646464B1B6A13F01A
:10111000020F08D0FFF73AF8801B41F2883398425B
:10112000F3D9032077E0E5B9E369002B72D03D4A9B
:10113000526802F00C02082A56D0022B17D03A4B04
:1011400000221A60FFF722F80446364B1B6813F0A2
:10115000007F47D0FFF71AF8001B0228F5D90320BB
:1011600059E0304AD36923F08053D361DCE72E4B3A
:1011700000221A60FFF70AF805462A4B1B6813F095
:10118000007F06D0FFF702F8401B0228F5D90320A4
:1011900041E0236AB3F5803F1AD022494B6823F41B
:1011A0007413226A606A024313434B601E4B012290
:1011B0001A60FEF7EBFF04461A4B1B6813F0007F22
:1011C0000ED1FEF7E3FF001B0228F5D9032022E031
:1011D000144A536823F40033A1680B435360DCE7DF
:1011E000002018E0002016E0012B16D00D4B5B68A4
:1011F00003F48031226A914201D001200BE003F414
:101200007013626A93420AD0012004E00120704703
:10121000012000E0002002B070BD0120FBE70020AB
:10122000F9E700BF001002406000424210B487B0EE
:10123000164C94E80F000DF1180C0CE90F00238AEE
:10124000ADF80430124B5B6803F00C02082A1AD187
:10125000C3F38342624412F8102C13F4803F05D18B
:101260000C4800FB02F007B010BC7047084B5B68ED
:10127000C3F34043634413F8143C074800FB02F0F7
:10128000B0FBF3F0EFE70448EDE700BF304400089F
:101290000010024000093D0000127A00002800F012
:1012A000A38070B50446524B1B6803F007038B42C2
:1012B0000CD24F4A136823F007030B4313601368E3
:1012C00003F007038B4201D0012070BD236813F0A7
:1012D000020F17D013F0040F04D0464A536843F4AA
:1012E000E0635360236813F0080F04D0414A536849
:1012F00043F4605353603F4A536823F0F003A068FF
:10130000034353600D46236813F0010F31D0636827
:10131000012B20D0022B25D0364A126812F0020F82
:1013200064D034494A6822F0030213434B60FEF74D
:101330002DFF06462F4B5B6803F00C036268B3EB8E
:10134000820F16D0FEF722FF801B41F288339842AD
:10135000F0D90320B9E7274A126812F4003FE0D120
:101360000120B2E7234A126812F0007FD9D1012090
:10137000ABE71F4B1B6803F00703AB420CD91C4AB9
:10138000136823F007032B431360136803F007036C
:10139000AB4201D0012098E7236813F0040F06D078
:1013A000144A536823F4E063E1680B4353602368F5
:1013B00013F0080F07D00F4A536823F460532169D4
:1013C00043EAC1035360FFF731FF0A4B5B68C3F385
:1013D0000313094AD35CD840084B1860084B1868BF
:1013E00002F000FF002070E70120704701206CE749
:1013F0000020024000100240684400080C00002059
:1014000004000020014B1868704700BF0C0000204A
:1014100008B5FFF7F7FF044B5B68C3F30223034AE9
:10142000D35CD84008BD00BF0010024078440008DB
:1014300008B5FFF7E7FF044B5B68C3F3C223034A19
:10144000D35CD84008BD00BF0010024078440008BB
:101450000F2303600B4B5A6802F0030242605A6884
:1014600002F0F00282605A6802F4E062C2605B68D7
:10147000DB0803F4E0630361034B1B6803F007031D
:101480000B607047001002400020024070B582B02F
:101490000446036813F0010F34D03E4BDB6913F0B0
:1014A000805F48D13B4BDA6942F08052DA61DB69F8
:1014B00003F080530193019B0125374B1B6813F404
:1014C000807F3AD0334B1B6A13F4407311D06268AB
:1014D00002F440729A420CD02E4A136A23F44070F0
:1014E0002E4901260E6000260E60106213F0010FD7
:1014F00037D1284A136A23F4407361680B4313629F
:10150000002D3FD1236813F0020F06D0214A536803
:1015100023F44043A1680B435360236813F0100F7A
:1015200035D01C4A536823F48003E1680B435360B1
:10153000002002B070BD0025BFE7174A136843F4CE
:1015400080731360FEF722FE0646134B1B6813F4EC
:10155000807FB7D1FEF71AFE801B6428F5D90320DF
:10156000E7E7FEF713FE06460A4B1B6A13F0020F6D
:10157000BFD1FEF70BFE801B41F288339842F3D9AE
:101580000320D6E7D36923F08053D361BAE7002064
:10159000CFE700BF0010024000700040400442420C
:1015A000002839D010B504460023836290F85130EA
:1015B000002B2CD0022384F851302268136823F0CA
:1015C000400313606368A2681343E268134322690F
:1015D000134362691343A26902F400721343E26980
:1015E0001343226A1343A16A22680B431360638B7F
:1015F000226803F0040353602268D36923F4006374
:10160000D36100206065012384F8513010BD80F85B
:10161000503002F0EFFCCDE70120704710B4036AB0
:10162000046A24F001040462846924F0F00444EAAA
:10163000021223F00A030B438261036210BC70475D
:1016400010B4036A23F0100303628469036A24F46C
:10165000704444EA023223F0A00343EA011382619A
:10166000036210BC7047836823F07003194341F094
:101670000701816070470268D36843F00103D360BB
:101680000268936803F00703062B03D0136843F046
:101690000103136000207047704770477047704720
:1016A00010B5044603681A6912F0020F11D0DA6807
:1016B00012F0020F0DD06FF002021A6101230377BE
:1016C00003689B6913F0030F70D0FFF7E6FF002358
:1016D000237723681A6912F0040F12D0DA6812F027
:1016E000040F0ED06FF004021A61022323772368DF
:1016F0009B6913F4407F5FD02046FFF7CEFF0023A5
:10170000237723681A6912F0080F12D0DA6812F0F2
:10171000080F0ED06FF008021A61042323772368A4
:10172000DB6913F0030F4ED02046FFF7B6FF00230E
:10173000237723681A6912F0100F12D0DA6812F0BA
:10174000100F0ED06FF010021A6108232377236860
:10175000DB6913F4407F3DD02046FFF79EFF002356
:10176000237723681A6912F0010F03D0DA6812F0A8
:10177000010F36D123681A6912F0800F03D0DA689E
:1017800012F0800F34D123681A6912F0400F03D091
:10179000DA6812F0400F32D123681A6912F0200F74
:1017A00003D0DA6812F0200F30D110BDFFF774FFBC
:1017B0002046FFF773FF8AE72046FFF76DFF2046BC
:1017C000FFF76CFF9BE72046FFF766FF2046FFF719
:1017D00065FFACE72046FFF75FFF2046FFF75EFF9F
:1017E000BDE76FF001021A61204602F01DFBC1E760
:1017F0006FF080021A61204600F0FFF8C3E76FF037
:1018000040021A612046FFF74AFFC5E76FF0200249
:101810001A61204600F0F0F8C7E7000003681B4A91
:1018200090420AD0B0F1804F07D0A2F59432904296
:1018300003D002F58062904203D123F070034A681E
:101840001343124A90420AD0B0F1804F07D0A2F55C
:101850009432904203D002F58062904203D123F487
:101860004073CA68134323F080034A69134303603B
:101870008B68C3620B688362044B984202D00123D9
:10188000436170470B690363F9E700BF002C014017
:10189000A8B110B5044690F83D305BB1022384F83E
:1018A0003D30211D2068FFF7B9FF012384F83D304A
:1018B000002010BD80F83C3002F0D6FBEEE701209E
:1018C000704710B4846824F47F4442EA03230B4336
:1018D0002343836010BC704790F83C30012B66D0E6
:1018E00010B50446012380F83C30022380F83D30D7
:1018F0000268936823F47F4323F0770393600B68B7
:10190000402B4AD013D9602B3DD01ED9702B28D044
:10191000B3F5005F30D1CB684A6889680068FFF78B
:10192000D0FF2268936843F48043936024E0102B37
:1019300006D004D9202B03D0302B01D01CE0DBB91A
:1019400019462068FFF78FFE16E0502B14D1CA68A5
:1019500049680068FFF762FE50212068FFF783FEA8
:101960000AE0CB684A6889680068FFF7AAFF226826
:10197000936843F077039360012384F83D3000209F
:1019800084F83C0010BDCA6849680068FFF758FE3B
:1019900060212068FFF767FEEEE7CA6849680068C3
:1019A000FFF73CFE40212068FFF75DFEE4E70220E0
:1019B000704790F83C30012B1CD070B4012680F8A1
:1019C0003C60022380F83D3002685568936825F03A
:1019D00070050C682C4323F080054B682B43546042
:1019E0000268936080F83D60002380F83C30184620
:1019F00070BC704702207047704770470268D36818
:101A000023F49073D3600268536923F00103536198
:101A1000202380F83A30704790F83930DBB2212B20
:101A20002AD18368B3F5805F16D0036A5A1C02621C
:101A30001A7803685A60C38C013B9BB2C384EBB92C
:101A40000268D36823F08003D3600268D36843F050
:101A50004003D36000207047036A1B880268C3F309
:101A60000803536003691BB9036A02330362E2E7A8
:101A7000036A01330362DEE70220704700207047EB
:101A800038B504460268136923F44053C1680B4318
:101A9000136183680269134342691A430168CB6882
:101AA00023F4B05323F00C031343CB600268536953
:101AB00023F4407381690B4353610268214B9A42BE
:101AC0001FD0FFF7A5FC00EB800000EB80006368EF
:101AD0009B00B0FBF3F01C4DA5FB003251096422C2
:101AE00002FB110213013233A5FB03235B0903F050
:101AF000F00202EB011203F00F03216813448B6024
:101B000038BDFFF795FC00EB800000EB80006368B8
:101B10009B00B0FBF3F00C4DA5FB00325109642291
:101B200002FB110213013233A5FB03235B0903F00F
:101B3000F00202EB011203F00F03216813448B60E3
:101B4000DEE700BF003801401F85EB5158B310B5E8
:101B5000044690F839300BB3242384F839302268D6
:101B6000D36823F40053D3602046FFF789FF22682F
:101B7000136923F4904313612268536923F02A0305
:101B800053612268D36843F40053D3600020E063BC
:101B9000202384F8393084F83A3010BD80F838308A
:101BA00002F09AFAD8E701207047002830D010B52B
:101BB000044690F8393033B3242384F8393022684E
:101BC000D36823F40053D3602046FFF759FF2268FF
:101BD000136923F4904313612268536923F02203AD
:101BE00053612268536943F0080353612268D36844
:101BF00043F40053D3600020E063202384F839309D
:101C000084F83A3010BD80F8383002F065FAD3E736
:101C100001207047704708B50168CB6823F0400386
:101C2000CB60202380F83930FFF7F4FF002008BD97
:101C3000704708B590F83A30DBB2222B45D1836863
:101C4000B3F5805F0ED0036903BB03685A68836AEB
:101C5000591C81621A70C38D013B9BB2C385F3B1DD
:101C6000002033E0826A036943B903685B68C3F309
:101C700008031380836A02338362ECE703685B68BE
:101C8000DBB21380836A01338362E4E703685B6835
:101C9000826A511C816203F07F031370DBE70268E4
:101CA000D36823F02003D3600268D36823F48073E1
:101CB000D3600268536923F001035361202380F845
:101CC0003A30FFF7B5FF002000E0022008BD704762
:101CD00010B5044602681368D168526913F00F000A
:101CE00005D113F0200F02D011F0200F53D100289E
:101CF00067D012F0010202D111F4907F61D013F08D
:101D0000010F06D011F4807F03D0E06B40F001009A
:101D1000E06313F0040F04D01AB1E06B40F002004E
:101D2000E06313F0020F04D01AB1E06B40F004003E
:101D3000E06313F0080F04D01AB1E26B42F008021E
:101D4000E263E26B002A48D013F0200F02D011F0BA
:101D5000200F24D123685B6903F04003E26B12F08B
:101D6000080F00D13BB32046FFF748FE23685A69AD
:101D700012F0400F1BD05A6922F040025A61636B87
:101D80008BB11A4A5A63606BFEF742FE28B3606B50
:101D9000436B984721E02046FFF74BFF1DE02046AC
:101DA000FFF747FFD6E72046FFF791FF15E02046F3
:101DB000FFF78DFF11E02046FFF789FF0023E36363
:101DC0000BE013F0800F02D011F0800F06D113F05A
:101DD000400F02D011F0400F04D110BD2046FFF794
:101DE0001BFEFAE72046FFF716FFF6E7F11D000895
:101DF00008B5406A0023C385C384FFF768FF08BDA8
:101E0000EFF305839BB9EFF310839BB90C4B1B6871
:101E1000022B05D08BB90A4B01221A6000207047B3
:101E2000EFF31182002AF5D06FF0050070476FF0D4
:101E3000050070476FF0050070474FF0FF307047A6
:101E40002C00002008B5EFF30583B3B9EFF310833E
:101E5000B3B90E4B1B68022B08D0012B13D10B4BCF
:101E600002221A6000F030FE002008BDEFF311825C
:101E7000002AF2D06FF00500F7E76FF00500F4E7F5
:101E80006FF00500F1E74FF0FF30EEE72C00002087
:101E9000F0B587B000240494EFF305844CBBEFF356
:101EA000108333BB334B1B68022B25D008B30023B0
:101EB0008DF8173092B316681EB3946904B91824CC
:101EC000631E372B52D8536813F0010F50D1556958
:101ED000D5B14FEA950C93682BB1D7685B2F02D927
:101EE000176907B10DBB93B14FF0FF35012D23D01A
:101EF00075B3049807B0F0BDEFF31183002BF8D150
:101F0000D4E70DF11706D8E74FF0800CE3E7D3686C
:101F10006BB9136973B14FF0FF35E7E7002518245B
:101F20004FF0800C0DF11706E0E70125DEE74FF0DA
:101F3000FF35DBE70025D9E7136992680292019328
:101F400000940B466246314600F052FD0490D0E703
:101F500004AA019200940B461FFA8CF2314600F05D
:101F600080FD0128C5D000230493C2E70020C1E70B
:101F70000020BFE72C00002008B5EFF30583A3B9CC
:101F8000EFF31083A3B90C4B1B68022B02D040B9AE
:101F9000002008BDEFF31183002BF8D06FF005008F
:101FA000F7E700F0E5FE0020F3E76FF00500F0E74B
:101FB0006FF00500EDE700BF2C00002010B4044BCB
:101FC0001C1D046060330B608023136010BC7047DD
:101FD0002C00002010B4064B03F51874046003F5C0
:101FE0002F730B604FF48073136010BC704700BFF9
:101FF0002C00002000F1080343604FF0FF328260A4
:10200000C3600361002303607047002303617047CE
:1020100043684B609A688A609A6851609960086169
:10202000036801330360704730B40D68B5F1FF3FBA
:1020300002D000F1080202E0026904E01A46536887
:102040001C68AC42FAD953684B6099608A60516051
:10205000086103680133036030BC7047036942685C
:10206000816891608268416851605A68824206D0F6
:10207000002202611A68013A1A6018687047826883
:102080005A60F5E710B5044601F084FAA26BE36BE1
:102090009A4204D0002401F09FFA204610BD01248A
:1020A000F9E710B5044601F075FAA36B23B10024DB
:1020B00001F092FA204610BD0124F9E770B50446FC
:1020C0001646856B026C5AB903681BB100200135B6
:1020D000A56370BD406800F0A5FF00236360F6E7CC
:1020E0006EB9806802F084F9226CA3681344A3607F
:1020F0006268934219D32368A3600020E7E7C068B1
:1021000002F076F9226C5242E3681344E3602168DE
:102110008B4202D263681A44E260022E01D0002092
:10212000D5E725B1013D0020D1E70020CFE7002011
:10213000CDE7026C72B110B5C3681344C360446844
:10214000A34201D30368C3600C46C168204602F075
:102150004FF910BD704738B5054601F01BFA95F8E8
:10216000454064B203E000F045FF013C64B2002C3E
:1021700008DD6B6A33B105F1240000F09FFE0028F2
:10218000F3D0F0E7FF2385F8453001F025FA01F0A0
:1021900001FA95F8444064B203E000F02BFF013CE3
:1021A00064B2002C08DD2B6933B105F1100000F09A
:1021B00085FE0028F3D0F0E7FF2385F8443001F0D6
:1021C0000BFA38BD38B540B94FF0500383F311888E
:1021D000BFF36F8FBFF34F8FFEE704460D4601F04C
:1021E000D9F92168E26B236C03FB021060600020C8
:1021F000A063A160013A02FB0313E360FF2384F8AC
:10220000443084F84530A5B923691BB901F0E4F9DD
:10221000012038BD04F1100000F050FE0028F5D078
:10222000084B4FF080521A60BFF34F8FBFF36F8F90
:10223000ECE704F11000FFF7DDFE04F12400FFF7E6
:10224000D9FEE3E704ED00E038B51D46049C0B46DB
:1022500049B12260E063236401212046FFF7B2FF09
:1022600084F84C5038BD2460F4E740B94FF0500377
:1022700083F31188BFF36F8FBFF34F8FFEE710B565
:1022800084B0044653B192B189B94FF0500383F33F
:102290001188BFF36F8FBFF34F8FFEE74FF05003EE
:1022A00083F31188BFF36F8FBFF34F8FFEE74AB9F7
:1022B00041B14FF0500383F31188BFF36F8FBFF329
:1022C0004F8FFEE7502003900398502808D04FF01E
:1022D000500383F31188BFF36F8FBFF34F8FFEE777
:1022E00020461C46012384F8463000949DF818309F
:1022F000FFF7AAFF204604B010BD0000F0B585B07E
:10230000019260B1044699B9026C8AB14FF0500352
:1023100083F31188BFF36F8FBFF34F8FFEE74FF04A
:10232000500383F31188BFF36F8FBFF34F8FFEE726
:10233000022B0BD1E26B012A08D04FF0500383F33C
:102340001188BFF36F8FBFF34F8FFEE71E460F4616
:1023500000F058FE50B9019B53B14FF0500383F386
:102360001188BFF36F8FBFF34F8FFEE700253AE070
:10237000002538E0324639462046FFF79FFE636A63
:102380004BB9A8B13B4B4FF080521A60BFF34F8F4F
:10239000BFF36F8F0CE004F1240000F08FFD38B123
:1023A000344B4FF080521A60BFF34F8FBFF36F8FE3
:1023B00001F012F9012005B0F0BD01F00DF9002087
:1023C000F9E702A800F0BEFD012519E0002384F81A
:1023D000443021E0002384F8453023E02046FFF715
:1023E000BAFE00F04DFC01F0D5F8A26BE36B9A4207
:1023F000C0D3022EBED0019B002BDED0002DE0D03A
:1024000001F0EAF800F0A6FB01F0C4F894F84430BB
:102410005BB2B3F1FF3FD9D094F845305BB2B3F172
:10242000FF3FD7D001F0D8F801A902A800F094FD31
:10243000C8B92046FFF726FE0028CFD0019904F145
:10244000100000F003FD2046FFF785FE00F018FCA9
:102450000028C8D1074B4FF080521A60BFF34F8F4E
:10246000BFF36F8FBFE72046FFF775FE00F008FC53
:102470000020A0E704ED00E02DE9F84360B1044638
:1024800099B9006C88B14FF0500383F31188BFF302
:102490006F8FBFF34F8FFEE74FF0500383F3118828
:1024A000BFF36F8FBFF34F8FFEE7022B0BD1E06BB3
:1024B000012808D04FF0500383F31188BFF36F8FCA
:1024C000BFF34F8FFEE71F469046894601F04EF955
:1024D000EFF311864FF0500383F31188BFF36F8F32
:1024E000BFF34F8FA26BE36B9A4203D3022F01D04D
:1024F00000200FE094F845506DB23A464946204618
:10250000FFF7DCFDB5F1FF3F08D06B1C5BB284F830
:102510004530012086F31188BDE8F883636A5BB11A
:1025200004F1240000F0CAFC40B1B8F1000F07D05C
:102530000120C8F80000EDE70120EBE70120E9E702
:102540000120E7E7F0B585B0019260B1044699B982
:10255000036C8BB14FF0500383F31188BFF36F8F7F
:10256000BFF34F8FFEE74FF0500383F31188BFF3A3
:102570006F8FBFF34F8FFEE70F4600F043FD50B95A
:10258000019B53B14FF0500383F31188BFF36F8F5A
:10259000BFF34F8FFEE700263EE000263CE03946C1
:1025A0002046FFF7C6FD013DA563236923B901F06D
:1025B00013F8012005B0F0BD04F1100000F07EFC1E
:1025C0000028F4D0344B4FF080521A60BFF34F8F85
:1025D000BFF36F8FEBE700F0FFFF0020EAE702A8F0
:1025E00000F0B0FC012621E0002384F8443029E00B
:1025F000002384F845302BE02046FFF7ACFD00F0C7
:102600003FFB09E02046FFF7A6FD00F039FB20461E
:10261000FFF747FD00283DD100F0BCFFA56B002D62
:10262000BDD1019B002BD6D0002ED8D000F0D4FF16
:1026300000F090FA00F0AEFF94F844305BB2B3F1D2
:10264000FF3FD1D094F845305BB2B3F1FF3FCFD01C
:1026500000F0C2FF01A902A800F07EFC0028D1D141
:102660002046FFF71EFD0028C6D0019904F1240082
:1026700000F0ECFB2046FFF76EFD00F001FB0028A8
:10268000CAD1054B4FF080521A60BFF34F8FBFF392
:102690006F8FC1E700208DE704ED00E00023072BDA
:1026A0000CD8074A52F833200AB10133F7E7044A3D
:1026B00042F8331002EBC30358607047704700BF05
:1026C0003419002070B504460D46164600F062FF2E
:1026D00094F844305BB2B3F1FF3F0DD094F845302D
:1026E0005BB2B3F1FF3F0BD000F076FFA36B5BB1A1
:1026F0002046FFF730FD70BD002384F84430EDE73D
:10270000002384F84530EFE73246294604F12400DF
:1027100000F0B6FBECE70000074B9B6A1B6833B187
:10272000054B9A6AD268D2685268DA627047024BE7
:102730004FF0FF32DA627047E80600202DE9F047DB
:1027400081460D4617469A46089EDDF824800A9C6D
:102750009200A521206B01F056FE236B07F1804209
:10276000013A03EB820727F0070700230F2B07D856
:10277000E95CE21882F83410EA5C0AB10133F5E74B
:10278000002384F84330372E00D93726E662E6640A
:1027900000252565201DFFF738FC04F11800FFF720
:1027A00034FC2461C6F13806A6616462656584F86C
:1027B000585084F85A5052464946384600F0C0FEF8
:1027C0002060B8F1000F01D0C8F80040BDE8F087E4
:1027D00070B5002407E004EB84029300104818440D
:1027E000FFF708FC0134372CF5D90E4C04F592663E
:1027F0003046FFF7FFFB04F2A4452846FFF7FAFB3B
:1028000004F11400FFF7F6FB04F59760FFF7F2FB05
:102810002046FFF7EFFBA662C4F8CC5470BD00BFA2
:1028200018070020E806002038B5044600F0B2FE84
:10283000274BD3F8D0240132C3F8D024D3F8D434B2
:1028400073B1234BD3F8D8348BB9214BD3F8D4349C
:10285000DA6AE36A9A420AD81D4BC3F8D44406E008
:102860001B4BC3F8D444D3F8D034012B2CD0184AD6
:10287000D2F8DC340133C2F8DC346364E36AD2F8A2
:10288000E024934202D9124AC2F8E034104D05F117
:10289000300003EB83039A00211D1044FFF7B8FBBF
:1028A00000F09AFED5F8D8346BB1D5F8D434DA6A92
:1028B000E36A9A4207D2074B4FF080521A60BFF387
:1028C0004F8FBFF36F8F38BDFFF782FFCFE700BF99
:1028D000E806002004ED00E010B5044690F85930F9
:1028E00033B9006B01F04AF8204601F047F810BDFB
:1028F000012B0AD0022BFAD04FF0500383F311883A
:10290000BFF36F8FBFF34F8FFEE701F037F8EEE7AD
:1029100038B517E000F03EFE0D4CD4F8C434DD6845
:10292000281DFFF79BFBD4F8D034013BC4F8D0340A
:10293000D4F8E434013BC4F8E43400F04DFE2846FA
:10294000FFF7CAFF024BD3F8E434002BE2D138BDC5
:10295000E806002008B5FFF7DBFF064B1B6B012BD9
:10296000F9D9054B4FF080521A60BFF34F8FBFF378
:102970006F8FF0E7E806002004ED00E070B5044634
:102980000E461A4BD3F8E854D3F8D424002182F829
:102990005A10D3F8D4040430FFF760FBB4F1FF3FC2
:1029A00012D02C44114BD3F8D4345C60A54214D817
:1029B0000E4DA86AD5F8D4140431FFF735FBEB6A45
:1029C000A34212D9EC6210E0002EEAD00748D0F8FA
:1029D000D4140431FFF71CFB07E0044BD3F8CC04FC
:1029E000D3F8D4140431FFF71FFB70BDE8060020B4
:1029F00070B586B00B9D0C9C45B94FF0500383F326
:102A00001188BFF36F8FBFF34F8FFEE744B94FF0CC
:102A1000500383F31188BFF36F8FBFF34F8FFEE72F
:102A20005C260496049E5C2E08D04FF0500383F37E
:102A30001188BFF36F8FBFF34F8FFEE72563022529
:102A400084F8595000250395029405AD01950A9D1F
:102A50000095FFF773FE2046FFF7E6FE059806B0E7
:102A600070BD2DE9F04385B0074688461546994666
:102A7000900000F0FDFE08B306465C2000F0F8FE72
:102A80000446B8B10663E4B1002384F859300393D7
:102A900002940D9B01930C9B00934B462A464146A2
:102AA0003846FFF74BFE2046FFF7BEFE012005B07B
:102AB000BDE8F083304600F061FFE4E74FF0FF30FF
:102AC000F5E74FF0FF30F2E710B588B00024059429
:102AD000069407AA06A905A8FFF770FA059B0293BA
:102AE000069B019300942346079A17491748FFF75E
:102AF0007FFF40B100F03EFB012806D0B0F1FF3F60
:102B000018D008B010BD0020F6E74FF0500383F353
:102B10001188BFF36F8FBFF34F8F0D4B4FF0FF3214
:102B2000DA620122C3F8D8240022C3F8E82400F0B6
:102B3000C3FDE6E74FF0500383F31188BFF36F8FB7
:102B4000BFF34F8FFEE700BF8044000855290008FF
:102B5000E8060020034AD2F8EC340133C2F8EC3422
:102B6000704700BFE8060020014BD3F8E804704727
:102B7000E80600202DE9F041404BD3F8EC34002B5F
:102B80006DD13E4BD3F8E8540135C3F8E854CDB9C4
:102B90009B6A1B6843B14FF0500383F31188BFF366
:102BA0006F8FBFF34F8FFEE7344B9A6AD3F8CC1484
:102BB0009962C3F8CC24D3F8F0240132C3F8F0248E
:102BC000FFF7AAFD2D4BDB6AAB423ED900242B4A0E
:102BD000D2F8D434DB6A03EB830399000A44136B05
:102BE000012B43D9012441E00124244B9B6A1B683B
:102BF0006BB3224B9B6ADB68DE6873689D422BD304
:102C000006F104084046FFF729FAB36A1BB106F142
:102C10001800FFF723FAF36A184AD2F8E024934227
:102C200002D9164AC2F8E034144F07F1300003EB22
:102C300083039A0041461044FFF7EAF9F26AD7F895
:102C4000D434DB6A9A42CFD2CFE70024CDE70B4BD6
:102C50004FF0FF32DA62BAE7084AD362B7E7074AB1
:102C6000D2F8F4340133C2F8F4340024034BD3F81F
:102C7000F83403B101242046BDE8F081E8060020C5
:102C8000394BD3F8EC3443B94FF0500383F3118838
:102C9000BFF36F8FBFF34F8FFEE770B500F07AFC84
:102CA000314BD3F8EC24013AC3F8EC24D3F8EC34DC
:102CB000002B54D12C4BD3F8D03423B9002400F08E
:102CC0008BFC204670BD0024274B5B692BB3264D3F
:102CD0002B6ADC6804F11800FFF7C0F9261D3046A6
:102CE000FFF7BCF9E36AD5F8E024934201D9C5F8AF
:102CF000E0341D4D05F1300003EB83039A003146AB
:102D00001044FFF785F9E26AD5F8D434DB6A9A42B9
:102D1000DAD30122C5F8F824D6E70CB1FFF7FCFCA2
:102D2000114BD3F8F44464B1FFF724FF18B10E4BF4
:102D30000122C3F8F824013CF6D10B4B0022C3F862
:102D4000F424094BD3F8F8345BB1084B4FF08052B0
:102D50001A60BFF34F8FBFF36F8F0124AFE70024DA
:102D6000ADE70024ABE700BFE806002004ED00E07B
:102D700010B5B0B104460F4BD3F8EC3443B14FF06B
:102D8000500383F31188BFF36F8FBFF34F8FFEE7BC
:102D9000FFF7E0FE00212046FFF7F0FDFFF770FF90
:102DA00038B9054B4FF080521A60BFF34F8FBFF315
:102DB0006F8F10BDE806002004ED00E0224BD3F831
:102DC000EC3423B1204B0122C3F8F82470471E4B8A
:102DD0000022C3F8F824D3F8E03403EB8302910017
:102DE000194A0A44126B5AB90BB1013BF5E74FF08F
:102DF000500383F31188BFF36F8FBFF34F8FFEE74C
:102E000010B4114A9900CC18A0001044446B6468B7
:102E100044633032194488000830024494420CD094
:102E2000094903EB830082000A44526BD268C1F85F
:102E3000D424C1F8E03410BC704761680248142201
:102E400002FB03025163EBE7E806002040B94FF0B4
:102E5000500383F31188BFF36F8FBFF34F8FFEE7EB
:102E600010B50C46054BD3F8D4141831FFF7DCF835
:102E700001212046FFF782FD10BD00BFE8060020BB
:102E800038B540B94FF0500383F31188BFF36F8F0B
:102E9000BFF34F8FFEE70C461546074AD2F8D4140D
:102EA0001831FFF7B5F80DB14FF0FF342946204631
:102EB000FFF764FD38BD00BFE806002038B5C368E1
:102EC000DC6844B94FF0500383F31188BFF36F8F70
:102ED000BFF34F8FFEE704F118052846FFF7BEF851
:102EE000154BD3F8EC3403BB251D2846FFF7B6F885
:102EF000E36A114AD2F8E024934202D90E4AC2F89A
:102F0000E03403EB83039A0029460C481044FFF792
:102F10007FF8E26A084BD3F8D434DB6A9A4209D9C5
:102F20000120054BC3F8F80438BD29460448FFF7D3
:102F30006FF8EEE70020F7E7E8060020180700200A
:102F4000FC060020034BD3F8F0240260D3F8E834E9
:102F500043607047E8060020F8B550B1054689B9CE
:102F60004FF0500383F31188BFF36F8FBFF34F8F80
:102F7000FEE74FF0500383F31188BFF36F8FBFF369
:102F80004F8FFEE70C4600F005FB194BD3F8E81411
:102F900068680A1AD3F8D43493F85A30A3B923686E
:102FA000B3F1FF3F1FD02F68114ED6F8F064B7423F
:102FB00001D0884219D9934211D99B1A236028461F
:102FC000FFF7C0FF002406E0094BD3F8D4340022F9
:102FD00083F85A20012400F0FFFA2046F8BD0023B0
:102FE00023600124F7E70024F5E70124F3E700BF9D
:102FF000E8060020024B0122C3F8F824704700BF06
:10300000E8060020064BD3F8D8343BB1044BD3F884
:10301000EC340BB10020704702207047012070474C
:10302000E806002000283BD038B504461F4AD2F8F5
:10303000D424824208D04FF0500383F31188BFF3A9
:103040006F8FBFF34F8FFEE7026D42B94FF0500311
:1030500083F31188BFF36F8FBFF34F8FFEE7013A01
:103060000265C06AE16C88421CD0EAB9251D284679
:10307000FEF7F4FFE36CE362C3F13802A2610B4A8E
:10308000D2F8E024934202D9084AC2F8E034294633
:10309000074A142000FB0320FEF7BAFF012038BDC9
:1030A000002070470020FAE70020F8E7E80600203B
:1030B00018070020064B1A681368B3FA83F35B09FC
:1030C000036013B9D368186870470020704700BFC9
:1030D000E40B002008B54160006191420CD8D21A7F
:1030E00083699A4201D3012010E0011D094B586801
:1030F000FEF79AFF002009E09A4201D2994206D2D7
:10310000011D044B1868FEF78FFF002008BD012049
:10311000FCE700BFE40B002070B582B000F03AFA83
:10312000124B9B681BB100F057FA02B070BD0F4CF8
:1031300004F10C063046FEF75DFF04F12005284639
:10314000FEF758FF266065600023009304F1340306
:1031500004F1840210210A20FFF787F8A0600028FC
:10316000E1D00349FFF79AFADDE700BFE40B002046
:103170008844000810B588B0FFF7CEFF134B9B685A
:10318000D3B100240594069407AA06A905A8FEF762
:1031900021FF059B0293069B019302230093234684
:1031A000079A0B490B48FFF723FC084BC3F824018F
:1031B00010B1012008B010BD4FF0500383F3118807
:1031C000BFF36F8FBFF34F8FFEE700BFE40B00200C
:1031D00090440008C9340008C8B130B585B0154620
:1031E0000446174A906840B31A460091019502942C
:1031F00005291DDCFFF706FF022811D000231A461F
:1032000069460F488068FFF779F805B030BD4FF088
:10321000500383F31188BFF36F8FBFF34F8FFEE727
:103220000023089A694606488068FFF767F8ECE7CC
:1032300000236946FFF720F9E7E70020E5E700BF34
:10324000E40B0020204B1B681A68002A37D070B5A9
:1032500082B0DB681E68DC68251D2846FEF7FEFE8E
:10326000636A20469847E369012B0AD0164B1B6816
:103270001A68002AEDD1144A51681160536002B0F7
:1032800070BDA36933449E4207D26360246129461E
:103290000D4B1868FEF7C8FEE8E7002100910B46C9
:1032A00032462046FFF798FF0028DFD14FF0500349
:1032B00083F31188BFF36F8FBFF34F8FFEE7024A8E
:1032C0005168116053607047E40B002038B5054623
:1032D000FFF74AFC0446084BD3F82831834206D84E
:1032E00000232B60044BC3F82841204638BDFFF76C
:1032F000A9FF01232B60F5E7E40B002070B582B035
:1033000005460E46144B1B68DB68DC68201DFEF783
:10331000A5FEE369012B04D0636A2046984702B0FA
:1033200070BDA1692B46324629442046FFF7D2FEE4
:103330000028F1D0002100910B462A462046FFF7D5
:103340004BFF0028E8D14FF0500383F31188BFF3FF
:103350006F8FBFF34F8FFEE7E40B002070B582B094
:1033600006460C46FFF7F6FB01A8FFF7AFFF019BEF
:103370001BBB05460CB9B04218D22CB1114B5B688F
:103380001C68B4FA84F464092246711B0D4B9868DA
:10339000FFF798F9FFF774FC88B90B4B4FF0805298
:1033A0001A60BFF34F8FBFF36F8F08E0FFF768FC21
:1033B00029463046FFF7A2FF01E0FFF761FC02B0AB
:1033C00070BD00BFE40B002004ED00E030B589B013
:1033D00002E0049B002B0FDA002204A9394B986805
:1033E000FFF7B0F800286AD0049B002BF1DA0799A8
:1033F0000698059B9847ECE7069C636913B1201D6E
:10340000FEF72CFE03A8FFF761FF049B092BE3D80E
:1034100001A252F823F000BF4134000841340008F3
:1034200041340008D933000889340008AF3400085B
:103430004134000841340008D933000889340008B9
:103440000599A5690B46024629442046FFF742FE2E
:103450000028C1D0636A20469847E369012BBBD19D
:10346000A269002100910B46059802442046FFF70F
:10347000B3FE0028B0D14FF0500383F31188BFF39F
:103480006F8FBFF34F8FFEE70599A16131B10346FE
:10349000024601442046FFF71DFE9DE74FF0500312
:1034A00083F31188BFF36F8FBFF34F8FFEE794F85C
:1034B0002C30002B90D1204600F060FA8CE709B048
:1034C00030BD00BFE40B002000B583B001A8FFF7BA
:1034D000F1FD0199FFF742FFFFF778FFF6E70000E3
:1034E00082B0002301930D4B1B68B3F1FF3F08D05E
:1034F0004FF0500383F31188BFF36F8FBFF34F8FEB
:10350000FEE74FF0500383F31188BFF36F8FBFF3D3
:103510004F8F019B002BFCD002B0704708000020A9
:1035200006480068006880F3088862B661B6BFF399
:103530004F8FBFF36F8F00DF00BF000008ED00E08A
:103540004FF0807340F8043C21F0010140F8081C62
:10355000034B40F80C3C40F8202C4038704700BF2B
:10356000E13400080000000000000000000000003E
:10357000074B19680868B0E8F00F80F30988BFF3BB
:103580006F8F4FF0000080F311884EF00D0E7047E2
:10359000BC0B00204FF0500383F31188BFF36F8FF3
:1035A000BFF34F8F0A4A136801331360012B00D019
:1035B0007047084B1B6813F0FF0FF9D04FF0500312
:1035C00083F31188BFF36F8FBFF34F8FFEE700BF08
:1035D0000800002004ED00E0094B1B6843B94FF0E0
:1035E000500383F31188BFF36F8FBFF34F8FFEE754
:1035F000013B034A13600BB983F31188704700BF86
:103600000800002000000000000000000000000092
:10361000EFF30980BFF36F8F0D4B1A6820E9F00FAD
:1036200010602DE908404FF0500080F31188FFF73B
:10363000C5FB4FF0000080F31188BDE80840196811
:103640000868B0E8F00F80F30988BFF36F8F704708
:10365000BC0B002008B54FF0500383F31188BFF373
:103660006F8FBFF34F8FFFF785FA18B1034B4FF001
:1036700080521A60002383F3118808BD04ED00E036
:10368000084A0023136008490B60084B1B6808496F
:10369000A1FB03139B09013B06490B600723136041
:1036A000704700BF10E000E018E000E00C000020D0
:1036B000D34D621014E000E010B582B0274B1A78A9
:1036C000D2B20192FF221A701B78DBB28DF8033060
:1036D0009DF8033003F05003214A13700723536011
:1036E00009E01F4A5368013B53609DF803305B00BB
:1036F000DBB28DF803309DF8033013F0800FF0D16A
:10370000174B5B68032B08D04FF0500383F31188ED
:10371000BFF36F8FBFF34F8FFEE71B0203F4E0632D
:103720000F4A5360019BDBB20C4A13700D4B1A68B1
:1037300042F470021A601A6842F070421A60FFF791
:103740009FFF0024084B1C60FFF7EAFEFFF736FBE3
:10375000FFF7C6FE204602B010BD00BF00E400E047
:10376000100D002020ED00E008000020EFF305839D
:103770000F2B0FD9104A9B5CDBB2104A12789A4289
:1037800008D94FF0500383F31188BFF36F8FBFF355
:103790004F8FFEE70A4B1B6803F4E063074A526849
:1037A000934208D94FF0500383F31188BFF36F8F12
:1037B000BFF34F8FFEE77047F0E300E0100D0020ED
:1037C0000CED00E0134A12F0070F20D0D11D21F0BC
:1037D0000701C1F5406313440A460E49C1F8002CA5
:1037E0000020C1F8040C1344083B23F00703C1F880
:1037F000083C58601860981A50601360C1F80C0CAF
:10380000C1F8100C4FF00043C1F8143C70474FF45E
:103810004063E2E7180D002010B4134B1A6882428F
:103820001BD359685C18844203D140680144596035
:10383000184641684418A24213D10C4CD4F8084CE5
:10384000A2420CD05268114441601A6812680260AA
:10385000984200D0186010BC70471346DEE7046041
:10386000F6E70260F4E700BF18190020180D0020E9
:1038700070B50446FFF76EF93F4BD3F8083CC3B16F
:103880003D4BD3F8143C1C426CD1ACB1083414F05D
:10389000070F11D024F00704083404F007035BB1CC
:1038A0004FF0500383F31188BFF36F8FBFF34F8F37
:1038B000FEE7FFF787FFE3E7002C55D02E4BD3F848
:1038C000103CA34252D32C4BD3F8005C03F5406369
:1038D00001E02B4615466A68A24202D22A68002AF5
:1038E000F7D1254AD2F8082CAA4241D01E680836E2
:1038F0002A681A606B681B1B102B10D9281910F04E
:10390000070F08D04FF0500383F31188BFF36F8F78
:10391000BFF34F8FFEE743606C60FFF77DFF696880
:10392000154AD2F8103C5B1AC2F8103CD2F80C2CA5
:10393000934202D2104AC2F80C3C0F4BD3F8143C0D
:103940000B436B6000232B60FFF79AF916F0070F0B
:1039500010D04FF0500383F31188BFF36F8FBFF384
:103960004F8FFEE70026EFE70026EDE70026EBE7A6
:103970000026E9E7304670BD180D002098B338B531
:103980000446A0F1080550F8042C1749D1F8141C7E
:103990000A4208D14FF0500383F31188BFF36F8FB1
:1039A000BFF34F8FFEE750F8080C40B14FF05003C3
:1039B00083F31188BFF36F8FBFF34F8FFEE722EAC7
:1039C000010244F8042CFFF7C5F854F8041C064A19
:1039D000D2F8103C0B44C2F8103C2846FFF71CFFFD
:1039E000FFF74EF938BD7047180D00202DE9F04360
:1039F00089B000240494059406940794444B9A6972
:103A000042F010029A619A6902F010020092009A44
:103A10009A6942F020029A619A6902F020020192AA
:103A2000019A9A6942F004029A619A6902F00402CA
:103A30000292029A9A6942F008029A619B6903F025
:103A400008030393039BDFF8D89022464FF40051FC
:103A50004846FDF7B7F92F4D224610212846FDF7BD
:103A6000B1F92D4E224698213046FDF7ABF94FF4BF
:103A7000005304934FF00108CDF8148006940227F8
:103A8000079704A94846FDF7B1F80323049305936B
:103A900004A92846FDF7AAF810230493CDF8148052
:103AA000069407970DEB03012846FDF79FF84FF4A6
:103AB000A0630493194B0593069404A92846FDF7C7
:103AC00095F898230493CDF814800694079704A9D9
:103AD0003046FDF78BF84FF4407304930594069439
:103AE00004A93046FDF782F8224621461720FCF74C
:103AF00017FF1720FCF748FF224621462820FCF735
:103B00000FFF2820FCF740FF09B0BDE8F08300BF9D
:103B10000010024000080140000C0140000011109C
:103B20000010014000B583B00E4B5A6942F001020B
:103B30005A615B6903F001030193019B0022114666
:103B40000B20FCF7EDFE0B20FCF71EFF00221146B8
:103B50000D20FCF7E5FE0D20FCF716FF03B05DF825
:103B600004FB00BF00100240F0B585B000250195B0
:103B700002950395194C1A4B23604FF48073A36090
:103B80000127277325754FF46023E36165600526DF
:103B900026612046FCF74AFC01950297039501A98E
:103BA0002046FCF781FB0223029301A92046FCF783
:103BB0007BFB0323029301A92046FCF775FB04233A
:103BC00002930DEB03012046FCF76EFB029601A960
:103BD0002046FCF769FB05B0F0BD00BFA41A002029
:103BE0000024014008B50B480B4B036009234360D8
:103BF00000238360C3604FF4A02202614361037617
:103C0000012242768376C37603774377FCF797FCED
:103C100008BD00BF3C1A00200064004008B50D48F4
:103C20000D4B03604FF482734360002383604FF4B5
:103C30000062C260036143614FF40072826130220E
:103C4000C2610362436283620A23C362FDF7A8FC78
:103C500008BD00BF581B00200030014030B587B0C0
:103C600000240294039404940594009401940F4D4D
:103C70000F4B2B604FF4E1536B60AC6041F2883323
:103C8000EB602C61AC612846FDF702FE4FF48053D7
:103C9000029302A92846FDF71FFE0094019469468D
:103CA0002846FDF786FE07B030BD00BF641A00202D
:103CB0000004004030B587B00024029403940494BB
:103CC0000594009401940E4D0E4B2B604FF4347309
:103CD0006B60AC606423EB602C61AC612846FDF73F
:103CE000D7FD4FF48053029302A92846FDF7F4FD57
:103CF0000094019469462846FDF75BFE07B030BD8D
:103D0000781900200008004008B50848084B0360F7
:103D10004FF4E133436000238360C36003610C22EE
:103D200042618361C361FDF740FF08BDD41A0020E2
:103D30000038014008B50848084B03604FF4E133F0
:103D4000436000238360C36003610C22426183618E
:103D5000C361FDF7FBFE08BDFC19002000480040D0
:103D600008B50120FEF708F9FBE730B595B000244F
:103D70000C940D940F941094059406940794089451
:103D80000994019402940394049401220A924FF43A
:103D900080330B930E920225119512934FF4E0138A
:103DA00013930AA8FDF73AF80F2305930695079495
:103DB0004FF4806308930994294605A8FDF76EFA2D
:103DC00001954FF40043039301A8FDF75FFB15B085
:103DD00030BD000008B5FCF7BBF9FFF7C6FFFFF7E1
:103DE00005FEFFF79FFEFFF7BFFEFFF7FBFEFFF7A5
:103DF00015FFFFF733FFFFF75DFFFFF785FFFFF7C5
:103E000099FFFDF7FDFF054A00210548FEF740F840
:103E1000044B1860FEF716F8FEE700BF44440008A4
:103E2000613D00087419002008B50268034B9A42EE
:103E300000D008BDFCF79EF9FBE700BF002C014055
:103E40007047000082B00E4B9A6942F001029A61FD
:103E50009A6902F001020092009ADA6942F08052F7
:103E6000DA61DB6903F080530193019B054A5368D3
:103E700023F0E06343F00073536002B0704700BF6B
:103E8000001002400000014030B589B000230493C7
:103E900005930693079302682B4B9A4201D009B011
:103EA00030BD044603F56C439A6942F400729A618E
:103EB0009A6902F400720192019A9A6942F004022E
:103EC0009A619A6902F004020292029A9A6942F097
:103ED00008029A619B6903F008030393039B0F2375
:103EE00004930325059504A91848FCF77FFE0223D7
:103EF0000493059504A91648FCF778FE1548164B5F
:103F000003600023436083608023C3604FF4007329
:103F100003614FF400634361202383614FF44053F6
:103F2000C361FCF73FFD58B90A4B23625C62002273
:103F300001211220FCF7F4FC1220FCF725FDAEE76E
:103F4000FFF77EFFF0E700BF0024014000080140BA
:103F5000000C0140141B00200800024030B587B05F
:103F60000023029303930493059302681F4B9A4224
:103F700001D007B030BD03F5D633DA6942F00072E4
:103F8000DA61DA6902F000720092009A9A6942F0EE
:103F900004029A619B6903F004030193019B06AC40
:103FA0004FF4006344F8103D114D21462846FCF7BC
:103FB0001DFE4FF4805302930223039303230593C2
:103FC00021462846FCF712FE002211461320FCF77A
:103FD000A7FC1320FCF7D8FC002211461420FCF7A4
:103FE0009FFC1420FCF7D0FCC3E700BF0064004036
:103FF0000008014010B586B0002302930393049398
:1040000005930268164B9A4201D006B010BD03F525
:1040100060439A6942F480529A619A6902F480522C
:104020000092009A9A6942F004029A619B6903F037
:1040300004030193019BA023029302230393032310
:104040000593084C02A92046FCF7D0FD40230293BB
:1040500000230393049302A92046FCF7C7FDD4E78D
:10406000003001400008014000B583B00368174AE2
:10407000934205D0164A934215D003B05DF804FB75
:10408000144BDA6942F00202DA61DB6903F00203E1
:104090000093009B002211461D20FCF741FC1D20CF
:1040A000FCF772FCE9E70B4BDA6942F00402DA61D3
:1040B000DB6903F004030193019B002211461E20DB
:1040C000FCF72EFC1E20FCF75FFCD6E70004004046
:1040D000000800400010024070B588B0002304932F
:1040E0000593069307930368374A934205D0044625
:1040F000364A934220D008B070BD354B9A6942F4DD
:1041000080429A619A6902F480420092009A9A6908
:1041100042F004029A619B6903F004030193019B3E
:104120004FF400730493122305930323079304A908
:104130002848FCF75BFDDEE7254BDA6942F4802274
:10414000DA61DA6902F480220292029A9A6942F0F4
:1041500008029A619B6903F008030393039B4FF4E1
:104160008063049302230593032307931A4E04A943
:104170003046FCF73BFD4FF40063049300250595A2
:10418000069504A93046FCF731FD1448144B036032
:10419000456085608023C36005614561202383619C
:1041A000C561FCF7FFFB58B90C4B63635C620022EE
:1041B00011462720FCF7B4FB2720FCF7E5FB9AE724
:1041C000FFF73EFEF0E700BF003801400048004026
:1041D0000010024000080140000C0140B819002006
:1041E0003000024000B589B0002201461920FCF7DA
:1041F00097FB1920FCF7C8FB144B9A6942F4006244
:104200009A619B6903F400630193019B02A903A8CF
:10421000FDF71EF9FDF70CF90D4BA3FB00239B0CDA
:10422000013B0C480C4A026040F2E732C260436036
:10423000002303618360FDF72BFB18B1012009B057
:104240005DF804FB0348FDF716FAF8E7001002409A
:1042500083DE1B43B01B0020002C01407047FEE7AB
:10426000FEE7FEE7FEE7704708B50248FCF71CFCD6
:1042700008BD00BF141B002008B50248FCF714FC61
:1042800008BD00BFB819002008B50248FBF786FF3B
:1042900008BD00BFA41A002008B50248FCF702FAC6
:1042A00008BD00BF3C1A002008B50248FCF7FAF927
:1042B00008BD00BF3C1A002008B54FF48070FCF721
:1042C00089FD08BD08B50248FDF7EAF908BD00BF41
:1042D000B01B002008B50248FDF7E2F908BD00BF99
:1042E000641A002008B50248FDF7DAF908BD00BFDE
:1042F0007819002008B50248FDF7EAFC08BD00BFA8
:10430000FC19002008B54FF48060FCF763FD08BD80
:104310000F4B1A6842F001021A6059680D4A0A40B0
:104320005A601A6822F0847222F480321A601A6885
:1043300022F480221A605A6822F4FE025A604FF476
:104340001F029A60044B4FF000629A60704700BFF2
:10435000001002400000FFF800ED00E0002103E043
:104360000B4B5B58435004310A480B4B42189A429E
:10437000F6D30A4A02E0002342F8043B084B9A4273
:10438000F9D3FFF7C5FF00F00FF8FFF723FD7047E3
:10439000AC440008000000201000002010000020A5
:1043A000F01B0020FEE7000070B500250C4E0D4C00
:1043B000A41BA410A54209D100F02EF800250A4E36
:1043C0000A4CA41BA410A54205D170BD56F8253097
:1043D00098470135EEE756F8253098470135F2E762
:1043E000A4440008A4440008A4440008A844000809
:1043F00010B5431E0A44914200D110BD11F8014B83
:1044000003F8014FF7E703460244934200D1704797
:1044100003F8011BF9E70000F8B500BFF8BC08BCC1
:104420009E467047F8B500BFF8BC08BC9E46704772
:1044300002030405060708090A0B0C0D0E0F1010E5
:104440000102000098440008000000000000000085
:104450000000000000000000000200001800000042
:10446000000000000000000000000000000000004C
:10447000010203040607080900000000010203040A
:1044800049444C4500000000546D7251000000008A
:10449000546D72205376630064656661756C745464
:0444A00061736B00D9
:0444A40035010008D6
:0444A80011010008F6
:1044AC000100000010000000AAAAAAAA0024F4002F
:040000050800435D4F
:00000001FF
