:020000040800F2
:100000000050002085760008D9740008DB740008D1
:10001000DD740008DF740008E174000800000000CF
:10002000000000000000000000000000D1520008A5
:10003000E37400080000000071530008B553000885
:10004000CD760008CD760008CD760008CD76000884
:10005000CD760008CD760008CD760008CD76000874
:10006000CD760008CD760008CD760008E57400084E
:10007000CD760008F5740008CD760008CD7600082E
:10008000CD760008CD7600080575000815750008C6
:1000900025750008CD760008CD7600083575000876
:1000A000CD76000841750008CD760008CD760008B1
:1000B000CD7600085175000861750008CD760008FE
:1000C000CD760008CD760008CD760008CD76000804
:1000D000CD760008CD760008CD7600087175000851
:1000E00081750008CD760008CD760008000000007C
:1000F0000000000000000000000000000000000000
:0C01000000000000000000005FF808F1A3
:1001100010B5054C237833B9044B13B10448AFF341
:1001200000800123237010BD280100200000000082
:10013000F483000808B5034B1BB103490348AFF330
:10014000008008BD000000002C010020F48300089E
:10015000034613F8012B002AFBD1181A0138704707
:1001600081F0004102E000BF83F0004330B54FEA68
:1001700041044FEA430594EA050F08BF90EA020FD5
:100180001FBF54EA000C55EA020C7FEA645C7FEA68
:10019000655C00F0E2804FEA5454D4EB5555B8BF8B
:1001A0006D420CDD2C4480EA020281EA030382EAFC
:1001B000000083EA010180EA020281EA0303362D8E
:1001C00088BF30BD11F0004F4FEA01314FF4801C61
:1001D0004CEA113102D0404261EB410113F0004F73
:1001E0004FEA03334CEA133302D0524263EB43032A
:1001F00094EA050F00F0A780A4F10104D5F1200EC8
:100200000DDB02FA0EFC22FA05F2801841F1000122
:1002100003FA0EF2801843FA05F359410EE0A5F1F6
:1002200020050EF1200E012A03FA0EFC28BF4CF027
:10023000020C43FA05F3C01851EBE37101F00045DD
:1002400007D54FF0000EDCF1000C7EEB00006EEBEA
:100250000101B1F5801F1BD3B1F5001F0CD3490874
:100260005FEA30004FEA3C0C04F101044FEA4452CB
:1002700012F5800F80F09A80BCF1004F08BF5FEA52
:10028000500C50F1000041EB045141EA050130BD32
:100290005FEA4C0C404141EB010111F4801FA4F1D5
:1002A0000104E9D191F0000F04BF01460020B1FA2A
:1002B00081F308BF2033A3F10B03B3F120020CDA62
:1002C0000C3208DD02F1140CC2F10C0201FA0CF040
:1002D00021FA02F10CE002F11402D8BFC2F1200CA5
:1002E00001FA02F120FA0CFCDCBF41EA0C0190405B
:1002F000E41AA2BF01EB0451294330BD6FEA0404A4
:100300001F3C1CDA0C340EDC04F11404C4F120028E
:1003100020FA04F001FA02F340EA030021FA04F3A0
:1003200045EA030130BDC4F10C04C4F1200220FAF7
:1003300002F001FA04F340EA0300294630BD21FA35
:1003400004F0294630BD94F0000F83F4801306BFFB
:1003500081F480110134013D4EE77FEA645C18BFEF
:100360007FEA655C29D094EA050F08BF90EA020F86
:1003700005D054EA000C04BF1946104630BD91EA7E
:10038000030F1EBF0021002030BD5FEA545C05D181
:100390004000494128BF41F0004130BD14F58004C0
:1003A0003CBF01F5801130BD01F0004545F0FE4134
:1003B00041F470014FF0000030BD7FEA645C1ABF69
:1003C000194610467FEA655C1CBF0B46024650EAA0
:1003D000013406BF52EA033591EA030F41F40021CC
:1003E00030BD00BF90F0000F04BF0021704730B552
:1003F0004FF4806404F132044FF000054FF0000127
:1004000050E700BF90F0000F04BF0021704730B5E7
:100410004FF4806404F1320410F0004548BF4042BC
:100420004FF000013EE700BF42004FEAE2014FEA11
:1004300031014FEA02701FBF12F07F4393F07F4FEC
:1004400081F06051704732F07F4208BF704793F0EF
:100450007F4F04BF41F40021704730B54FF4607402
:1004600001F0004521F000411CE700BF50EA010205
:1004700008BF704730B54FF000050AE050EA0102AE
:1004800008BF704730B511F0004502D5404261EB1E
:1004900041014FF4806404F132045FEA915C3FF45F
:1004A000D8AE4FF003025FEADC0C18BF03325FEAFC
:1004B000DC0C18BF033202EBDC02C2F1200300FAAD
:1004C00003FC20FA02F001FA03FE40EA0E0021FAD2
:1004D00002F11444BDE600BF70B54FF0FF0C4CF4C0
:1004E000E06C1CEA11541DBF1CEA135594EA0C0F72
:1004F00095EA0C0F00F0DEF82C4481EA030621EAAD
:100500004C5123EA4C5350EA013518BF52EA0335E7
:1005100041F4801143F4801338D0A0FB02CE4FF099
:100520000005E1FB02E506F00042E0FB03E54FF0C9
:100530000006E1FB03569CF0000F18BF4EF0010EC1
:10054000A4F1FF04B6F5007F64F5407404D25FEABD
:100550004E0E6D4146EB060642EAC62141EA555170
:100560004FEAC52040EA5E504FEACE2EB4F1FD0CB2
:1005700088BFBCF5E06F1ED8BEF1004F08BF5FEA30
:10058000500E50F1000041EB045170BD06F00046E2
:1005900046EA010140EA020081EA0301B4EB5C048F
:1005A000C2BFD4EB0C0541EA045170BD41F4801187
:1005B0004FF0000E013C00F3AB8014F1360FDEBFAC
:1005C000002001F0004170BDC4F10004203C35DA88
:1005D0000C341BDC04F11404C4F1200500FA05F30B
:1005E00020FA04F001FA05F240EA020001F00042AC
:1005F00021F0004110EBD37021FA04F642EB060122
:100600005EEA430E08BF20EAD37070BDC4F10C044B
:10061000C4F1200500FA04F320FA05F001FA04F20F
:1006200040EA020001F0004110EBD37041F10001FB
:100630005EEA430E08BF20EAD37070BDC4F1200506
:1006400000FA05F24EEA020E20FA04F301FA05F26E
:1006500043EA020321FA04F001F0004121FA04F216
:1006600020EA020000EBD3705EEA430E08BF20EAE6
:10067000D37070BD94F0000F0FD101F00046400020
:1006800041EB010111F4801F08BF013CF7D041EAA2
:10069000060195F0000F18BF704703F000465200A6
:1006A00043EB030313F4801F08BF013DF7D043EA77
:1006B0000603704794EA0C0F0CEA135518BF95EA2D
:1006C0000C0F0CD050EA410618BF52EA4306D1D1B4
:1006D00081EA030101F000414FF0000070BD50EAD3
:1006E000410606BF1046194652EA430619D094EA5D
:1006F0000C0F02D150EA013613D195EA0C0F05D147
:1007000052EA03361CBF104619460AD181EA03019A
:1007100001F0004141F0FE4141F470014FF0000052
:1007200070BD41F0FE4141F4780170BD70B54FF0ED
:10073000FF0C4CF4E06C1CEA11541DBF1CEA13556D
:1007400094EA0C0F95EA0C0F00F0A7F8A4EB05044F
:1007500081EA030E52EA03354FEA013100F0888046
:100760004FEA03334FF0805545EA131343EA12630F
:100770004FEA022245EA111545EA10654FEA0026C4
:100780000EF000419D4208BF964244F1FD0404F57D
:10079000407402D25B084FEA3202B61A65EB0305D9
:1007A0005B084FEA32024FF480104FF4002CB6EB96
:1007B000020E75EB030E22BFB61A754640EA0C0016
:1007C0005B084FEA3202B6EB020E75EB030E22BF56
:1007D000B61A754640EA5C005B084FEA3202B6EB97
:1007E000020E75EB030E22BFB61A754640EA9C0056
:1007F0005B084FEA3202B6EB020E75EB030E22BF26
:10080000B61A754640EADC0055EA060E18D04FEAE3
:10081000051545EA16754FEA06164FEAC30343EA83
:1008200052734FEAC2025FEA1C1CC0D111F4801F50
:100830000BD141EA00014FF000004FF0004CB6E749
:1008400011F4801F04BF01430020B4F1FD0C88BFE8
:10085000BCF5E06F3FF6AFAEB5EB030C04BFB6EBF3
:10086000020C5FEA500C50F1000041EB045170BDE6
:100870000EF0004E4EEA113114EB5C04C2BFD4EB13
:100880000C0541EA045170BD41F480114FF0000E97
:10089000013C90E645EA060E8DE60CEA135594EA13
:1008A0000C0F08BF95EA0C0F3FF43BAF94EA0C0F16
:1008B0000AD150EA01347FF434AF95EA0C0F7FF48B
:1008C00025AF104619462CE795EA0C0F06D152EADF
:1008D00003353FF4FDAE1046194622E750EA4106C3
:1008E00018BF52EA43067FF4C5AE50EA41047FF4D4
:1008F0000DAF52EA43057FF4EBAE12E74FF0FF3C39
:1009000006E000BF4FF0010C02E000BF4FF0010C09
:100910004DF804CD4FEA410C7FEA6C5C4FEA430C82
:1009200018BF7FEA6C5C1BD001B050EA410C0CBFD1
:1009300052EA430C91EA030F02BF90EA020F002033
:10094000704710F1000F91EA030F58BF994208BF9A
:1009500090422CBFD8176FEAE37040F00100704757
:100960004FEA410C7FEA6C5C02D150EA013C07D1AE
:100970004FEA430C7FEA6C5CD6D152EA033CD3D0F9
:100980005DF8040B704700BF8446104662468C46F3
:100990001946634600E000BF01B5FFF7B7FF002826
:1009A00048BF10F1000F01BD4DF808EDFFF7F4FF4F
:1009B0000CBF012000205DF808FB00BF4DF808EDDA
:1009C000FFF7EAFF34BF012000205DF808FB00BFFD
:1009D0004DF808EDFFF7E0FF94BF012000205DF81F
:1009E00008FB00BF4DF808EDFFF7CEFF94BF0120D4
:1009F00000205DF808FB00BF4DF808EDFFF7C4FFCD
:100A000034BF012000205DF808FB00BF4FEA410C15
:100A10007FEA6C5C02D150EA013C0AD14FEA430CF8
:100A20007FEA6C5C02D152EA033C02D14FF0000035
:100A300070474FF0010070474FEA410212F5001273
:100A400015D211D56FF47873B3EB625212D94FEA15
:100A5000C12343F0004343EA505311F0004F23FAFF
:100A600002F018BF404270474FF00000704750EA54
:100A7000013005D111F0004008BF6FF00040704711
:100A80004FF00000704700BF4A0011D212F500126B
:100A900011D20DD56FF47873B3EB62520ED44FEAD6
:100AA000C12343F0004343EA505323FA02F0704756
:100AB0004FF00000704750EA013002D14FF0FF3094
:100AC00070474FF0000070474FEA4102B2F1E04337
:100AD00024BFB3F5001CDCF1FE5C0DD901F0004C25
:100AE0004FEAC0024CEA5070B2F1004F40EB830075
:100AF00008BF20F00100704711F0804F21D113F1A1
:100B00003872BCBF01F00040704741F480114FEAD9
:100B10005252C2F11802C2F1200C10FA0CF320FA62
:100B200002F018BF40F001004FEAC1234FEAD3237F
:100B300003FA0CFC40EA0C0023FA02F34FEA4303E9
:100B4000CCE77FEA625307D150EA01331EBF4FF072
:100B5000FE4040F44000704701F0004040F0FE408D
:100B600040F40000704700BF80F0004002E000BF8A
:100B700081F0004142001FBF5FEA410392EA030F88
:100B80007FEA226C7FEA236C6AD04FEA1262D2EBD2
:100B90001363C1BFD218414048404140B8BF5B42D7
:100BA000192B88BF704710F0004F40F4000020F070
:100BB0007F4018BF404211F0004F41F4000121F086
:100BC0007F4118BF494292EA030F3FD0A2F10102D0
:100BD00041FA03FC10EB0C00C3F1200301FA03F10E
:100BE00000F0004302D5494260EB4000B0F5000F31
:100BF00013D3B0F1807F06D340084FEA310102F1F0
:100C00000102FE2A51D2B1F1004F40EBC25008BFA1
:100C100020F0010040EA03007047490040EB00006B
:100C200010F4000FA2F10102EDD1B0FA80FCACF19A
:100C3000080CB2EB0C0200FA0CF0AABF00EBC25099
:100C400052421843BCBFD0401843704792F0000F87
:100C500081F4000106BF80F400000132013BB5E7DA
:100C60004FEA41037FEA226C18BF7FEA236C21D050
:100C700092EA030F04D092F0000F08BF08467047B5
:100C800090EA010F1CBF0020704712F07F4F04D183
:100C9000400028BF40F00040704712F100723CBF96
:100CA00000F50000704700F0004343F0FE4040F4C0
:100CB000000070477FEA226216BF08467FEA23637E
:100CC0000146420206BF5FEA412390EA010F40F469
:100CD000800070474FF0000304E000BF10F00043B5
:100CE00048BF40425FEA000C08BF704743F096439C
:100CF00001464FF000001CE050EA010208BF7047B7
:100D00004FF000030AE000BF50EA010208BF70473D
:100D100011F0004302D5404261EB41015FEA010C52
:100D200002BF84460146002043F0B64308BFA3F14A
:100D30008053A3F50003BCFA8CF2083AA3EBC2532C
:100D400010DB01FA02FC634400FA02FCC2F120024B
:100D5000BCF1004F20FA02F243EB020008BF20F082
:100D60000100704702F1200201FA02FCC2F12002E8
:100D700050EA4C0021FA02F243EB020008BF20EADD
:100D8000DC7070474FF0FF0C1CEAD0521EBF1CEA0B
:100D9000D15392EA0C0F93EA0C0F6FD01A4480EAF9
:100DA000010C400218BF5FEA41211ED04FF00063E2
:100DB00043EA501043EA5111A0FB01310CF000400E
:100DC000B1F5000F3EBF490041EAD3715B0040EA34
:100DD000010062F17F02FD2A1DD8B3F1004F40EB04
:100DE000C25008BF20F00100704790F0000F0CF0D7
:100DF000004C08BF49024CEA502040EA51207F3A9B
:100E0000C2BFD2F1FF0340EAC250704740F4000075
:100E10004FF00003013A5DDC12F1190FDCBF00F066
:100E200000407047C2F10002410021FA02F1C2F114
:100E3000200200FA02FC5FEA310040F1000053EAB0
:100E40004C0308BF20EADC70704792F0000F00F0FE
:100E5000004C02BF400010F4000F013AF9D040EA04
:100E60000C0093F0000F01F0004C02BF490011F498
:100E7000000F013BF9D041EA0C018FE70CEAD15396
:100E800092EA0C0F18BF93EA0C0F0AD030F0004C16
:100E900018BF31F0004CD8D180EA010000F00040CA
:100EA000704790F0000F17BF90F0004F084691F088
:100EB000000F91F0004F14D092EA0C0F01D14202C2
:100EC0000FD193EA0C0F03D14B0218BF084608D18B
:100ED00080EA010000F0004040F0FE4040F40000D5
:100EE000704740F0FE4040F4400070474FF0FF0C68
:100EF0001CEAD0521EBF1CEAD15392EA0C0F93EAAF
:100F00000C0F69D0A2EB030280EA010C49024FEA00
:100F1000402037D04FF0805343EA111143EA1013B9
:100F20000CF000408B4238BF5B0042F17D024FF471
:100F3000000C8B4224BF5B1A40EA0C00B3EB510F4C
:100F400024BFA3EB510340EA5C00B3EB910F24BF35
:100F5000A3EB910340EA9C00B3EBD10F24BFA3EBBA
:100F6000D10340EADC001B0118BF5FEA1C1CE0D182
:100F7000FD2A3FF650AF8B4240EBC25008BF20F035
:100F8000010070470CF0004C4CEA50207F32C2BF89
:100F9000D2F1FF0340EAC250704740F400004FF026
:100FA0000003013A37E792F0000F00F0004C02BF57
:100FB000400010F4000F013AF9D040EA0C0093F021
:100FC000000F01F0004C02BF490011F4000F013B7B
:100FD000F9D041EA0C0195E70CEAD15392EA0C0FE3
:100FE00008D142027FF47DAF93EA0C0F7FF470AF1B
:100FF000084676E793EA0C0F04D14B023FF44CAF5E
:1010000008466EE730F0004C18BF31F0004CCAD1F2
:1010100030F000427FF45CAF31F000437FF43CAF2E
:101020005FE700BF4FF0FF3C06E000BF4FF0010C50
:1010300002E000BF4FF0010C4DF804CD4FEA400232
:101040004FEA41037FEA226C18BF7FEA236C11D07C
:1010500001B052EA530C18BF90EA010F58BFB2EB2F
:10106000030088BFC81738BF6FEAE17018BF40F0AF
:10107000010070477FEA226C02D15FEA402C05D163
:101080007FEA236CE4D15FEA412CE1D05DF8040BE8
:10109000704700BF844608466146FFE70FB5FFF77B
:1010A000C9FF002848BF10F1000F0FBD4DF808ED33
:1010B000FFF7F4FF0CBF012000205DF808FB00BF24
:1010C0004DF808EDFFF7EAFF34BF012000205DF87E
:1010D00008FB00BF4DF808EDFFF7E0FF94BF0120CB
:1010E00000205DF808FB00BF4DF808EDFFF7D2FFC8
:1010F00094BF012000205DF808FB00BF4DF808ED0B
:10110000FFF7C8FF34BF012000205DF808FB00BFD7
:1011100042000ED2B2F1FE4F0BD34FF09E03B3EB61
:10112000126209D44FEA002343F0004323FA02F08D
:1011300070474FF00000704712F1610F01D1420279
:1011400002D14FF0FF3070474FF00000704700BFF2
:1011500008B5074A136843F010031360032000F03A
:1011600015FE002006F07CF906F050F9002008BDBD
:1011700000200240034A1168034B1B780B441360A4
:10118000704700BF2022002000000020014B18689B
:10119000704700BF2022002008B5436A9A6A12F007
:1011A000500F03D01B6A1B6B984708BD9A6A42F424
:1011B00000729A621A68926802F46022B2F5602F97
:1011C00003D0184605F012FFEFE71A7B002AF8D18A
:1011D0009A6A22F480729A629A6A12F4805FF0D15D
:1011E0009A6A42F001029A62EBE7704708B5406ADA
:1011F000FFF7FBFF08BD704710B5044603685A6847
:1012000012F0200F18D01A6812F0020F14D0826A60
:1012100012F0100F03D1826A42F4007282629A685F
:1012200002F46022B2F5602F38D0204605F0DEFED1
:1012300023686FF012021A6023685A6812F0800F58
:1012400022D01A6812F0040F1ED0A26A12F0100FFA
:1012500003D1A26A42F40052A2629A6802F4E04208
:10126000B2F5E04F31D05A6812F4806F05D19A6818
:1012700002F46022B2F5602F24D0204600F072FA0A
:1012800023686FF00C021A6023685A6812F0400F4E
:1012900003D01B6813F0010F28D110BD227B002A58
:1012A000C3D15A6822F020025A60A36A23F48073E3
:1012B000A362A36A13F4805FB7D1A36A43F001036A
:1012C000A362B2E7227B002AD7D15A6822F08002BB
:1012D0005A60A36A23F48053A362A36A13F4807F45
:1012E000CBD1A36A43F00103A362C6E7A36A43F428
:1012F0008033A3622046FFF77EFF23686FF0010270
:101300001A60CAE7704708B5406A836A43F0400331
:101310008362C36A43F00403C362FFF7F3FF08BDAF
:1013200030B482B00023019390F82430012B00F0F8
:101330008B800246012380F824304B68062B29D885
:101340000568686B03EB8303053B1F249C4020EA80
:1013500004000C6804FA03F303436B630B68092B66
:1013600038D91568E86803EB43031E3B07249C400B
:1013700020EA04008C6804FA03F30343EB600B6873
:10138000103B012B34D90020002382F8243002B016
:1013900030BC70470C2B0ED80568286B03EB830319
:1013A000233B1F249C4020EA04000C6804FA03F34A
:1013B00003432B63D2E70568E86A03EB8303413BF1
:1013C0001F249C4020EA04000C6804FA03F3034342
:1013D000EB62C3E71568286903EB430307249C40CD
:1013E00020EA04008C6804FA03F303432B61C6E788
:1013F00013681648834205D0936A43F02003936232
:101400000120C1E7986810F4000F1BD1986840F4E0
:10141000000098600B68102B01D00020B4E70C4B43
:101420001B680C49A1FB03139B0C03EB83035900BE
:10143000019102E0019B013B0193019B002BF9D13B
:101440000020A1E700209FE70220A0E70024014040
:10145000B800002083DE1B4330B583B00023019326
:1014600003689A6812F0010F2ED19A6842F00102C7
:101470009A60174B1B68174AA2FB03239B0C01932E
:1014800002E0019B013B0193019B002BF9D1044633
:10149000FFF77CFE054623689B6813F0010F11D10E
:1014A000FFF774FE401B0228F5D9A36A43F010032E
:1014B000A362E36A43F00103E362002384F824306B
:1014C000012002E0002000E0002003B030BD00BF9A
:1014D000B800002083DE1B43F8B50468454DAC42DC
:1014E0005BD0454B9C4258D090F82440012C7ED0D4
:1014F00016460D460446012380F82430FFF7ACFF62
:10150000074600286ED1A36A23F4706323F0010319
:1015100043F48073A3622268374B9A4244D0A36A93
:1015200023F48013A362536813F4806F05D0A36A79
:1015300023F4405343F48053A362A36A13F4805FFF
:1015400048D0E36A23F00603E362002384F82430E2
:10155000236A2A4A9A62236A294ADA62236A294A52
:101560001A6323686FF002021A602268936843F4DA
:1015700080739360216833462A464C31206A00F01C
:10158000A5FC2268936803F46023B3F5602F24D090
:10159000936843F48013936027E0164B5B6813F461
:1015A000702FA1D0012720E0A3F580635B6813F4BE
:1015B000702FB4D0A36A43F48013A3620D4B5B6811
:1015C00013F4806FB9D0A36A23F4405343F48053DB
:1015D000A362B2E70023E362B7E7936843F4A00392
:1015E000936002E0002384F824303846F8BD0227D7
:1015F000FBE700BF002401400028014099110008CA
:10160000ED1100080713000838B503689A6812F056
:10161000010F01D1002038BD04469A6822F0010272
:101620009A60FFF7B3FD054623689B6813F0010F2E
:101630000ED0FFF7ABFD401B0228F5D9A36A43F09B
:101640001003A362E36A43F00103E3620120E2E7CF
:101650000020E0E700287FD038B50446836A002BDD
:1016600033D02046FFF7D0FFA36A13F010036DD1EB
:1016700000286BD1A26A22F4885222F0020242F0C2
:101680000202A2626268E1690A43257B42EA4502DE
:10169000A168B1F5807F21D001291CD0217D0129CD
:1016A0001FD02568696821F469410B436B6021688C
:1016B0008D682A4B2B4013438B60A368B3F5807F62
:1016C00020D0012B1ED000211FE0C36280F82430FF
:1016D00004F026F8C5E74FF48073DFE74FF480731A
:1016E000DCE735B9A169013943EA413343F40063CA
:1016F000D7E7A16A41F02001A162E16A41F001014E
:10170000E162CEE72369013B19052568EB6A23F402
:1017100070030B43EB6223689968114B0B409A42AC
:101720000BD0A36A23F0120343F01003A362E36A11
:1017300043F00103E36201200DE00023E362A36AAA
:1017400023F0030343F00103A36204E0A36A43F020
:101750001003A362012038BD01207047FDF7E1FFAF
:10176000FE0E1FFF70477047002800F0A18038B5BB
:10177000044690F82030D3B12268136823F00203A6
:101780001360FFF703FD054623685A6812F0020F45
:1017900010D0FFF7FBFC401B0A28F5D9636A43F41D
:1017A00000336362052384F82030012038BDFFF741
:1017B000DAFFE1E71A6842F001021A60FFF7E6FC7F
:1017C000054623685A6812F0010F0DD1FFF7DEFCC1
:1017D000401B0A28F5D9636A43F40033636205238A
:1017E00084F820300120E1E7227E012A3DD01A68EA
:1017F00022F080021A60637E012B3BD022681368BE
:1018000023F040031360A37E012B39D022681368B4
:1018100023F020031360E37E012B37D02268136886
:1018200043F010031360237F012B35D02268136827
:1018300023F008031360637F012B33D02268136801
:1018400023F004031360A368E2681343226913437F
:10185000626913436268013A21681343CB61002037
:101860006062012384F82030A0E71A6842F0800209
:101870001A60C0E72268136843F040031360C2E7B0
:101880002268136843F020031360C4E722681368DA
:1018900023F010031360C6E72268136843F00803BF
:1018A0001360C8E72268136843F004031360CAE7B3
:1018B00001207047036890F82020013AD2B2012A33
:1018C00005D9436A43F4802343620120704770B412
:1018D000D3F8002242F00102C3F800224A6902F064
:1018E0001F02012000FA02F2D3F81C42D043044048
:1018F000C3F81C42CC69ACB9D3F80C420440C3F81D
:101900000C42CE688D884C6945EA0645483443F858
:1019100034508E680D884C6945EA0645483403EB1F
:10192000C4046560CC69012C19D08C6974BBD3F8F0
:1019300004420440C3F804420C696CBBD3F814425F
:101940002040C3F81402096A01292BD0D3F80022E1
:1019500022F00102C3F80022002070BC7047D3F8C7
:101960000C421443C3F80C420E688D884C6945EA5A
:101970000645483443F834508E688D894C6945EAF1
:101980000645483403EBC4046560CEE7D3F804424F
:101990001443C3F80442CFE7D3F814021043C3F84A
:1019A0001402D0E7D3F81C120A43C3F81C22CDE777
:1019B00038B590F82030DBB2012B05D0436A43F4F0
:1019C00000234362012038BD0446022380F8203002
:1019D0000268136823F001031360FFF7D7FB054685
:1019E00023685B6813F0010F0DD0FFF7CFFB401B9E
:1019F0000A28F5D9636A43F400336362052384F847
:101A000020300120DFE700206062DCE770B490F84E
:101A100020400568AD68013CE4B2012C06D9436A58
:101A200043F480234362012070BC704715F0E05FEF
:101A30005BD0C5F30165022D3ED80124AC401C608B
:101A40008B68002B3ED10E68CB68046843EA46568B
:101A500005F118031B01E65003680C6905F118062F
:101A600003EB06135C600B7D012B36D0D1799379A3
:101A70001B0443EA0163517943EA012314790168A5
:101A800023432C012144C1F88C31D17893781B0475
:101A900043EA0163517843EA0123117802680B435A
:101AA0002244C2F88831026818352D01535943F099
:101AB000010353510020B7E7436A43F40003436234
:101AC0000120B1E74C6843EAC403CC6806682343AD
:101AD00005F1180424013351BEE7036803EB061334
:101AE000596841F480715960C0E7436A43F40013B8
:101AF0004362012098E790F82030013BDBB2012BD4
:101B000005D9436A43F48023436201207047026889
:101B100053691943516100207047704770477047FF
:101B200070477047704770477047704770477047FD
:101B3000704770472DE9F84F054603685C695F6898
:101B40009E68D3F80C90D3F81080D3F818A014F046
:101B5000010F5AD016F0010F17D001229A6016F02B
:101B6000020F08D116F0040F30D116F0080F07D07D
:101B70004FF4805B0BE0FFF7D0FF4FF0000B06E067
:101B8000FFF7CEFF4FF0000B01E04FF0000B16F413
:101B9000807F0BD02B684FF480729A6016F4007F20
:101BA00017D116F4806F18D04BF4005B16F4803F09
:101BB0002DD02B684FF480329A6016F4003F16D176
:101BC00016F4802F17D04BF4004B20E04FF4006B3D
:101BD000DDE72846FFF7A2FFE8E716F4006F02D022
:101BE0004BF4804BE2E72846FFF79BFFDEE72846F1
:101BF000FFF795FF0BE016F4002F02D04BF4803B6B
:101C000005E02846FFF78EFF01E04FF0000B14F0CF
:101C1000080F07D019F0100F04D04BF4007B2B688D
:101C20001022DA6014F0040F02D019F0080F60D10E
:101C300014F0020F04D02B68DB6813F0030F5FD1A0
:101C400014F0400F07D018F0100F04D04BF4806B45
:101C50002B6810221A6114F0200F02D018F0080F20
:101C600052D114F0100F04D02B681B6913F0030F2E
:101C700051D114F4003F02D017F0100F4FD114F4DB
:101C8000803F02D017F0080F50D114F4004F67D0F6
:101C900017F0040F61D014F4807F04D01AF0010F04
:101CA00001D04BF0010B14F4007F04D01AF0020FA6
:101CB00001D04BF0020B14F4806F04D01AF0040F23
:101CC00001D04BF0040B14F4006F46D01AF0700AE8
:101CD00043D0BAF1300F48D02FD9BAF1500F47D0C6
:101CE000BAF1600F47D0BAF1400F31D14BF0400B41
:101CF0002EE02B680822DA602846FFF715FF97E7E9
:101D00002846FFF710FF9BE72B6808221A61284638
:101D1000FFF70CFFA5E72846FFF707FFA9E72B68A9
:101D200010225A602846FFF702FFA8E72B68082216
:101D30005A602846FFF7FCFEA7E7BAF1100F05D05E
:101D4000BAF1200F04D14BF0100B01E04BF0080B5F
:101D50002A68936923F0700393612B6804225A6008
:101D6000BBF1000F0AD1BDE8F88F4BF0200BEFE775
:101D70004BF0800BECE74BF4807BE9E76B6A43EABE
:101D80000B036B622846FFF7D4FEECE7074AD368E3
:101D900023F4E0631B041B0C000200F4E060184312
:101DA00040F0BF6040F40030D060704700ED00E0CC
:101DB00030B4174BDB68C3F30223C3F10704042CD0
:101DC00028BF04241D1D062D18D9033B4FF0FF35F5
:101DD00005FA04F421EA0401994005FA03F322EA22
:101DE0000303194300280BDB0901C9B200F160406D
:101DF00000F5614080F8001330BC70470023E5E730
:101E000000F00F000901C9B2024B1954F4E700BFFA
:101E100000ED00E014ED00E0002807DB00F01F02F9
:101E2000400901239340024A42F82030704700BF26
:101E300000E100E070B4066CC56B0124B4406C6036
:101E4000046863604368102B05D0036899600368D9
:101E5000DA6070BC704703689A600368D960F8E77D
:101E600060B310B402460168154B0B441548A0FB43
:101E700003031B099B001364134BD363022382F8F3
:101E80002130086820F47F5020F0300053689468B7
:101E90002343D46823431469234354692343946937
:101EA0002343D469234303430B6000209063012341
:101EB00082F8213082F8200010BC70470120704762
:101EC000F8FFFDBFCDCCCCCC0000024038B590F877
:101ED0002040012C32D0012480F8204090F821408D
:101EE000012C04D0002380F82030022038BD0446A5
:101EF000022084F821000020A0632568286820F0D3
:101F0000010028602046FFF795FFE36A5BB1226875
:101F1000136843F00E0313602268136843F0010353
:101F200013600020E2E72268136823F004031360C3
:101F30002268136843F00A031360EDE70220D5E737
:101F400008B590F82130022B03D0042383630120CD
:101F500008BD0268136823F00E031360026813685B
:101F600023F0010313600368194A934214D014321A
:101F700093421FD0143293421ED0143293421ED08B
:101F8000143293421ED01432934202D04FF080722A
:101F900003E04FF4801200E001220E4B5A6001234F
:101FA00080F82130002380F82030436B6BB19847D4
:101FB0000020CDE71022F0E74FF48072EDE74FF4F8
:101FC0008052EAE74FF48032E7E70020C0E700BF25
:101FD000080002400000024038B5C36B1A6804686C
:101FE0002568016C04238B40134235D015F0040F93
:101FF00032D0236813F0200F03D1236823F00403A9
:1020000023600368434A934214D01432934218D099
:102010001432934217D01432934217D014329342A1
:1020200017D01432934202D04FF0806203E04FF495
:10203000800200E00422384B5A60C36A03B198471B
:1020400038BD4022F7E74FF48062F4E74FF4804256
:10205000F1E74FF48022EEE702238B4013423CD09D
:1020600015F0020F39D0236813F0200F06D1236832
:1020700023F00A032360012380F821300368254AF6
:10208000934214D0143293421CD0143293421BD08A
:10209000143293421BD0143293421BD01432934219
:1020A00002D04FF0007203E04FF4001200E0022271
:1020B000194B5A60002380F82030836A002BBFD070
:1020C0009847BDE72022F3E74FF40072F0E74FF4A2
:1020D0000052EDE74FF40032EAE7082303FA01F17A
:1020E0001142ADD015F0080FAAD0236823F00E03DB
:1020F0002360026CC16B012303FA02F24A6083631E
:1021000080F82130002380F82030036B002B97D01B
:10211000984795E708000240000002401A4BDB6830
:1021200013F0100F27D0194AD36943F00203D3618B
:102130001023154AD26812F0040F06D01349CA6959
:1021400042F00102CA6143F004030F4AD26912F05F
:10215000010F09D00D49CA6942F00402CA610A4957
:10216000CA6922F00102CA6140F20112934204D00E
:10217000054AD36070470023DBE7034AD36923F0A5
:102180000103D361704700BF0020024028220020D5
:102190000A4B1B6913F0800F0DD0084B084A5A6098
:1021A00002F188325A601B6913F0800F01D00120C0
:1021B0007047002070470020704700BF0020024099
:1021C0002301674538B50446FEF7E0FF0546174B87
:1021D000DB6813F0010F0AD0B4F1FF3FF7D00CB366
:1021E000FEF7D4FF401BA042F1D9032019E00F4BAA
:1021F000DB6813F0200F02D00C4B2022DA600B4B6F
:10220000DB6813F0100F09D1084BDB6913F0010FE5
:1022100004D1064BDB6813F0040F05D0FFF77EFFF7
:10222000012038BD0320FCE70020FAE7002002402F
:10223000F0B482B000263246A2E0002D5AD0012D23
:1022400000D1CE68FF2B69D88446FF2B69D8950052
:10225000DCF800400F27AF4024EA070406FA05F532
:102260002C43CCF800404C6814F0805F00F087806D
:102270005F4CA56945F00105A561A46904F001045E
:102280000194019C9508AF1C5A4C54F8274002F069
:102290000307BF004FF00F0C0CFA07FC24EA0C0CEC
:1022A000554CA04243D004F58064A04200F08180E8
:1022B00004F58064A0427ED004F58064A04234D04E
:1022C000042435E04D4FBD4214D00BD94C4FBD42D4
:1022D00010D007F58037BD420CD0A7F58017BD425E
:1022E000B0D107E0A7F58017BD4203D007F58037CE
:1022F000BD42A7D18D687DB1012D08D0446108266B
:10230000A0E7CE6808369DE7CE680C369AE70461F0
:10231000082697E7002695E7042693E700F1040CCA
:1023200093E7A2F10805AD0092E7032400E0002442
:10233000BC4044EA0C0402352E4F47F825404C6857
:1023400014F4803F39D02F4D2C681C432C604C680E
:1023500014F4003F37D02B4D6C681C436C604C6804
:1023600014F4801F35D0274DAC681C43AC604C681A
:1023700014F4001F33D0234DEC682343EB6001328B
:102380000B6833FA02F430D00124944023409C427D
:10239000F5D14D68122DB7D094D8022DB1D07FF66B
:1023A0004CAF032DB6D0112D7FF44CAFCE68043660
:1023B00048E70124BCE70224BAE7124D2C6824EA5E
:1023C00003042C60C3E70F4D6C6824EA03046C60BF
:1023D000C5E70C4DAC6824EA0304AC60C7E7094DBF
:1023E000EC6824EA0303EB60C9E702B0F0BC704775
:1023F00000100240000001400008014000002110D0
:10240000000031100004014012B909040161704755
:10241000016170477047000008B5054B5B690342D6
:1024200000D108BD024B5861FFF7F4FFF9E700BF88
:102430000004014082B0084B1B68084AA2FB03233A
:102440005B0A00FB03F0019000BF019B5A1E019242
:10245000002BF9D102B07047B8000020D34D6210B4
:10246000002800F0F58170B582B00446036813F0CF
:10247000010F2CD0AB4B5B6803F00C03042B1DD079
:10248000A84B5B6803F00C03082B12D06368B3F50C
:10249000803F41D0002B55D103F1804303F5043335
:1024A0001A6822F480321A601A6822F480221A60B4
:1024B00037E09C4B5B6813F4803FE7D0994B1B6877
:1024C00013F4003F03D06368002B00F0C38123683E
:1024D00013F0020F76D0934B5B6813F00C0F5FD0B4
:1024E000904B5B6803F00C03082B54D02369002B3E
:1024F00000F08A808C4B01221A60FEF747FE0546E9
:10250000884B1B6813F0020F75D1FEF73FFE401B8E
:102510000228F5D90320A0E1824A136843F48033EE
:102520001360636843B3FEF731FE05467D4B1B68BD
:1025300013F4003FCBD1FEF729FE401B6428F5D9E8
:1025400003208AE1B3F5A02F09D0764B1A6822F454
:1025500080321A601A6822F480221A60E1E703F1DF
:102560008043A3F53C331A6842F480221A601A684B
:1025700042F480321A60D4E7FEF708FE0546694B44
:102580001B6813F4003FA2D0FEF700FE401B642836
:10259000F5D9032061E1634B5B6813F4803FA5D15B
:1025A000604B1B6813F0020F04D02369012B01D08C
:1025B000012052E15B4A136823F0F803616943EAA2
:1025C000C1031360236813F0080F32D0A369002BF6
:1025D0005BD0564B01221A60FEF7D8FD0546514BE1
:1025E0005B6A13F0020F21D1FEF7D0FD401B0228D9
:1025F000F5D9032031E14B4A136823F0F8036169F0
:1026000043EAC1031360DDE7474B00221A60FEF77F
:10261000BDFD0546434B1B6813F0020FD2D0FEF7F9
:10262000B5FD401B0228F5D9032016E10120FFF774
:1026300001FF236813F0040F00F09880394BDB6929
:1026400013F0805F33D1374BDA6942F08052DA61A0
:10265000DB6903F080530193019B0125344B1B6818
:1026600013F4807F25D0E368012B36D0002B4CD1AA
:1026700003F1804303F504331A6A22F001021A625F
:102680001A6A22F004021A622CE0284B00221A6017
:10269000FEF77CFD0546234B5B6A13F0020FC8D0A2
:1026A000FEF774FD401B0228F5D90320D5E0002574
:1026B000D4E71F4A136843F480731360FEF766FD86
:1026C00006461B4B1B6813F4807FCCD1FEF75EFDE2
:1026D000801B6428F5D90320BFE0124A136A43F037
:1026E00001031362E3687BB3FEF750FD06460D4B12
:1026F0001B6A13F0020F38D1FEF748FD801B41F230
:1027000088339842F3D90320A7E0052B12D0054B5C
:102710001A6A22F001021A621A6A22F004021A628C
:10272000E0E700BF00100240000042428004424245
:10273000007000404C4B1A6A42F004021A621A6A96
:1027400042F001021A62CDE7FEF720FD0646464B35
:102750001B6A13F0020F08D0FEF718FD801B41F230
:1027600088339842F3D9032077E0E5B9E369002B79
:1027700072D03D4A526802F00C02082A56D0022B51
:1027800017D03A4B00221A60FEF700FD0446364B84
:102790001B6813F0007F47D0FEF7F8FC001B0228EF
:1027A000F5D9032059E0304AD36923F08053D3612F
:1027B000DCE72E4B00221A60FEF7E8FC05462A4BA8
:1027C0001B6813F0007F06D0FEF7E0FC401B0228D8
:1027D000F5D9032041E0236AB3F5803F1AD022499E
:1027E0004B6823F47413226A606A024313434B60FC
:1027F0001E4B01221A60FEF7C9FC04461A4B1B68E7
:1028000013F0007F0ED1FEF7C1FC001B0228F5D9A2
:10281000032022E0144A536823F40033A1680B43D9
:102820005360DCE7002018E0002016E0012B16D0F2
:102830000D4B5B6803F48031226A914201D0012084
:102840000BE003F47013626A93420AD0012004E0A3
:1028500001207047012000E0002002B070BD01207F
:10286000FBE70020F9E700BF001002406000424291
:1028700010B487B0164C94E80F000DF1180C0CE959
:102880000F00238AADF80430124B5B6803F00C0292
:10289000082A1AD1C3F38342624412F8102C13F4AD
:1028A000803F05D10C4800FB02F007B010BC704718
:1028B000084B5B68C3F34043634413F8143C074878
:1028C00000FB02F0B0FBF3F0EFE70448EDE700BFD8
:1028D0000C8400080010024000093D0000127A003C
:1028E000002800F0A38070B50446524B1B6803F02B
:1028F00007038B420CD24F4A136823F007030B43A4
:102900001360136803F007038B4201D0012070BDF0
:10291000236813F0020F17D013F0040F04D0464AB7
:10292000536843F4E0635360236813F0080F04D046
:10293000414A536843F4605353603F4A536823F05D
:10294000F003A068034353600D46236813F0010FA2
:1029500031D06368012B20D0022B25D0364A126873
:1029600012F0020F64D034494A6822F00302134384
:102970004B60FEF70BFC06462F4B5B6803F00C0325
:102980006268B3EB820F16D0FEF700FC801B41F2A9
:1029900088339842F0D90320B9E7274A126812F425
:1029A000003FE0D10120B2E7234A126812F0007F15
:1029B000D9D10120ABE71F4B1B6803F00703AB42E3
:1029C0000CD91C4A136823F007032B4313601368C8
:1029D00003F00703AB4201D0012098E7236813F00E
:1029E000040F06D0144A536823F4E063E1680B43F4
:1029F0005360236813F0080F07D00F4A536823F47D
:102A00006053216943EAC1035360FFF731FF0A4B6A
:102A10005B68C3F30313094AD35CD840084B1860C2
:102A2000084B186804F01CFD002070E70120704777
:102A300001206CE700200240001002405085000891
:102A4000B800002004000020014B1868704700BF48
:102A5000B800002008B5FFF7F7FF044B5B68C3F32D
:102A60000223034AD35CD84008BD00BF00100240D7
:102A70006085000808B5FFF7E7FF044B5B68C3F308
:102A8000C223034AD35CD84008BD00BF00100240F7
:102A9000608500080F2303600B4B5A6802F00302A5
:102AA00042605A6802F0F00282605A6802F4E06202
:102AB000C2605B68DB0803F4E0630361034B1B68DF
:102AC00003F007030B607047001002400020024033
:102AD00070B582B00446036813F0010F34D03E4B4A
:102AE000DB6913F0805F48D13B4BDA6942F08052DA
:102AF000DA61DB6903F080530193019B0125374BB9
:102B00001B6813F4807F3AD0334B1B6A13F4407375
:102B100011D0626802F440729A420CD02E4A136AB5
:102B200023F440702E4901260E6000260E601062CC
:102B300013F0010F37D1284A136A23F440736168F8
:102B40000B431362002D3FD1236813F0020F06D010
:102B5000214A536823F44043A1680B435360236820
:102B600013F0100F35D01C4A536823F48003E1683A
:102B70000B435360002002B070BD0025BFE7174A29
:102B8000136843F480731360FEF700FB0646134B93
:102B90001B6813F4807FB7D1FEF7F8FA801B642816
:102BA000F5D90320E7E7FEF7F1FA06460A4B1B6A60
:102BB00013F0020FBFD1FEF7E9FA801B41F2883310
:102BC0009842F3D90320D6E7D36923F08053D36129
:102BD000BAE70020CFE700BF0010024000700040BD
:102BE000400442422DE9F04383B004460F461646A6
:102BF0001D46FEF7CBFA0A9B181A00EB0508FEF7F4
:102C0000C5FA81462A4B1B68C3F3CB3308FB03F399
:102C1000019323689B6837EA03030CBF0123002359
:102C2000B34240D0B5F1FF3FF3D0FEF7AFFAA0EBCF
:102C3000090040450AD2B8F1000F07D0019B0BB93B
:102C40004FF00008019B013B0193E2E722685368C3
:102C500023F0E00353606368B3F5827F0BD0A36A6F
:102C6000B3F5005F14D0012384F85130002384F8B9
:102C70005030032018E0A368B3F5004F02D0B3F53D
:102C8000806FECD12268136823F040031360E6E7FD
:102C90002268136823F4005313602268136843F416
:102CA00000531360DFE7002003B0BDE8F08300BFEE
:102CB000B800002010B582B0044600920B460022F6
:102CC0008021FFF78FFF034610B9184602B010BDF0
:102CD000636D43F0200363650323F6E7002856D0B5
:102CE00010B50446436A33B94368B3F5827F05D013
:102CF0000023C36102E00023036143610023A36258
:102D000094F85130002B3CD0022384F851302268D3
:102D1000136823F040031360636803F48273A268AE
:102D200002F404421343E26802F40062134322698E
:102D300002F002021343626902F001021343A26926
:102D400002F400721343E26902F038021343226A6C
:102D500002F080021343A26A02F400522168134376
:102D60000B60638B226803F0040353602268D3690D
:102D700023F40063D36100206065012384F851309F
:102D800010BD84F85030204603F0F2FDBCE701206E
:102D900070472DE9F04383B0DDF8288090F850406B
:102DA000012C00F00B811D4617460E4604460123F8
:102DB00080F85030FEF7EAF9814694F85100C0B22D
:102DC0006368012815D0B3F5827F0AD0022301225F
:102DD00084F85120002284F85020184603B0BDE842
:102DE000F083A368002B40F0DB80042801D002238D
:102DF000EDE7002E00F0D680002F00F0D580002DEA
:102E000000F0D48094F85130DBB2042B02D00523BB
:102E100084F8513000236365A763E587A58726639F
:102E2000E586A5862364636423681A6812F0400F60
:102E300003D11A6842F040021A60E368B3F5006FEC
:102E400010D063680BB1012D0AD1226B2368127870
:102E50001A73236B01332363E38E013B9BB2E3863A
:102E6000012569E063680BB1012D0AD1226B23684B
:102E70001288DA60236B02332363E38E013B9BB23B
:102E8000E38601251BE023689A6812F0010F0DD03C
:102E9000E28F92B252B1DA68A36B1A80A36B02334D
:102EA000A363E38F013B9BB2E3870125FEF76EF935
:102EB000A0EB0900404502D3B8F1FF3F78D1E38E83
:102EC0009BB21BB9E38F9BB2002B52D023689A6848
:102ED00012F0020FD7D0E28E92B2002AD3D0002D8A
:102EE000D1D0226B1288DA60236B02332363E38E26
:102EF000013B9BB2E3860025C5E723689A6812F080
:102F0000010F0DD0E28F92B252B1DA68A36B1A7042
:102F1000A36B0133A363E38F013B9BB2E3870125DE
:102F2000FEF734F9A0EB0900404502D3B8F1FF3FAA
:102F300040D1B8F1000F3FD0E38E9BB213B9E38FBD
:102F40009BB2B3B123689A6812F0020FD5D0E28E1B
:102F500092B2002AD1D0002DCFD0226B12781A73F2
:102F6000236B01332363E38E013B9BB2E386002591
:102F7000C3E74A4641462046FFF79CFE034618B188
:102F800020236365012322E7A268002A7FF41FAF94
:102F900001922268D168019192680192019A16E724
:102FA000022314E7012312E7012310E701230EE7B0
:102FB00003230CE703230AE7032308E702230CE7B4
:102FC00010B4036A046A24F001040462846924F0E2
:102FD000F00444EA021223F00A030B438261036205
:102FE00010BC704710B4036A23F0100303628469B5
:102FF000036A24F4704444EA023223F0A00343EA53
:1030000001138261036210BC7047836823F0700370
:10301000194341F0070181607047000090F83D308E
:10302000DBB2012B01D001207047022380F83D3034
:103030000268D36843F00103D3600368104A9342E7
:1030400010D0B3F1804F0DD0A2F59432934209D045
:1030500002F58062934205D01A6842F001021A60BC
:10306000002070479A6802F00702062A05D01A6805
:1030700042F001021A60002070470020704700BF34
:10308000002C0140704770477047704710B50446E8
:1030900003681A6912F0020F11D0DA6812F0020FF9
:1030A0000DD06FF002021A610123037703689B6958
:1030B00013F0030F70D0FFF7E6FF00232377236898
:1030C0001A6912F0040F12D0DA6812F0040F0ED051
:1030D0006FF004021A610223237723689B6913F4BB
:1030E000407F5FD02046FFF7CEFF00232377236881
:1030F0001A6912F0080F12D0DA6812F0080F0ED019
:103100006FF008021A61042323772368DB6913F048
:10311000030F4ED02046FFF7B6FF00232377236826
:103120001A6912F0100F12D0DA6812F0100F0ED0D8
:103130006FF010021A61082323772368DB6913F408
:10314000407F3DD02046FFF79EFF00232377236872
:103150001A6912F0010F03D0DA6812F0010F36D1AC
:1031600023681A6912F0800F03D0DA6812F0800F1A
:1031700034D123681A6912F0400F03D0DA6812F0D4
:10318000400F32D123681A6912F0200F03D0DA6899
:1031900012F0200F30D110BDFFF774FF2046FFF76B
:1031A00073FF8AE72046FFF76DFF2046FFF76CFFAD
:1031B0009BE72046FFF766FF2046FFF765FFACE779
:1031C0002046FFF75FFF2046FFF75EFFBDE76FF089
:1031D00001021A61204604F0ABF8C1E76FF08002EB
:1031E0001A61204600F023F9C3E76FF040021A612C
:1031F0002046FFF74AFFC5E76FF020021A6120461C
:1032000000F014F9C7E7000003681B4A90420AD097
:10321000B0F1804F07D0A2F59432904203D002F56E
:103220008062904203D123F070034A681343124A2C
:1032300090420AD0B0F1804F07D0A2F5943290426C
:1032400003D002F58062904203D123F44073CA6830
:10325000134323F080034A69134303608B68C362FE
:103260000B688362044B984202D00123436170478C
:103270000B690363F9E700BF002C014038B310B5B8
:10328000044690F83D30EBB1022384F83D30211D17
:103290002068FFF7B9FF012384F8463084F83E30F8
:1032A00084F83F3084F8403084F8413084F842306C
:1032B00084F8433084F8443084F8453084F83D3055
:1032C000002010BD80F83C3004F0A4F9DCE70120B8
:1032D000704710B4846824F47F4442EA03230B430C
:1032E0002343836010BC704790F83C30012B66D0BC
:1032F00010B50446012380F83C30022380F83D30AD
:103300000268936823F47F4323F0770393600B688C
:10331000402B4AD013D9602B3DD01ED9702B28D01A
:10332000B3F5005F30D1CB684A6889680068FFF761
:10333000D0FF2268936843F48043936024E0102B0D
:1033400006D004D9202B03D0302B01D01CE0DBB9F0
:1033500019462068FFF759FE16E0502B14D1CA68B1
:1033600049680068FFF72CFE50212068FFF74DFEEA
:103370000AE0CB684A6889680068FFF7AAFF2268FC
:10338000936843F077039360012384F83D30002075
:1033900084F83C0010BDCA6849680068FFF722FE47
:1033A00060212068FFF731FEEEE7CA6849680068CF
:1033B000FFF706FE40212068FFF727FEE4E7022022
:1033C0007047000090F83C30012B2BD030B4012323
:1033D00080F83C30022380F83D3003685C689D68CB
:1033E00024F070040A6822435A6003680E4A93422C
:1033F0000AD0B3F1804F07D0A2F59432934203D0A4
:1034000002F58062934204D125F080054A68154395
:103410009D60012380F83D30002380F83C30184641
:1034200030BC704702207047002C01407047704745
:103430000268D36823F0C003D360202380F83930BA
:1034400070470268D36823F49073D36002685369AD
:1034500023F001035361202380F83A30704790F83D
:103460003930DBB2212B27D18368B3F5805F16D0CA
:10347000036A5A1C02621A7803685A60C38C013BC3
:103480009BB2C384D3B90268D36823F08003D360AE
:103490000268D36843F04003D3600020704703699B
:1034A000002BE5D1036A1B880268C3F3080353604D
:1034B000036A02330362E1E702207047002070478D
:1034C00038B504460268136923F44053C1680B43BE
:1034D000136183680269134342691A430168CB6828
:1034E00023F4B05323F00C031343CB6002685369F9
:1034F00023F4407381690B4353610268124B9A4273
:103500001FD0FFF7A7FA00EB800000EB8000636894
:103510009B00B0FBF3F00D4DA5FB00325109642276
:1035200002FB110213013233A5FB03235B0903F0F5
:10353000F00202EB011203F00F03216813448B60C9
:1035400038BDFFF797FADEE7003801401F85EB51E1
:103550002DE9F04105460F4616469846069C2B6815
:103560001B6837EA03030CBF01230023B3421DD1BC
:10357000B4F1FF3FF3D02CB1FDF708FEA0EB08003B
:10358000A042ECD92A68D36823F4D073D3602A68A8
:10359000536923F001035361202385F8393085F8FE
:1035A0003A30002385F83830032000E00020BDE8E1
:1035B000F08158B310B5044690F839300BB324238A
:1035C00084F839302268D36823F40053D36020464E
:1035D000FFF776FF2268136923F490431361226892
:1035E000536923F02A0353612268D36843F40053DC
:1035F000D3600020E063202384F8393084F83A3027
:1036000010BD80F8383003F0DFF9D8E701207047AB
:10361000002830D010B5044690F8393033B3242355
:1036200084F839302268D36823F40053D3602046ED
:10363000FFF746FF2268136923F490431361226861
:10364000536923F0220353612268536943F008034E
:1036500053612268D36843F40053D3600020E063D1
:10366000202384F8393084F83A3010BD80F838309F
:1036700003F0AAF9D3E7012070472DE9F04182B0A9
:103680001E4690F83930DBB2202B54D104460D464B
:103690009046002954D0002A54D090F83830012B9D
:1036A00052D0012380F838300023C363212380F8EF
:1036B0003930FDF76BFD0746A4F82480A4F8268076
:1036C000A368B3F5805F05D04FF00008002384F8AD
:1036D000383011E0236913B14FF00008F6E7A8462F
:1036E0000025F3E738F8023B2268C3F30803536070
:1036F000E38C013B9BB2E384E38C9BB273B10096F5
:103700003B46002280212046FFF722FFF0B9002D22
:10371000E8D015F8012B23685A60E9E700963B468C
:10372000002240212046FFF713FF034680B92022E4
:1037300084F8392000E00223184602B0BDE8F08189
:103740000123F9E70123F7E70223F5E70323F3E772
:103750000323F1E72DE9F04182B01E4690F83A309C
:10376000DBB2202B5AD104460D469046002959D091
:10377000002A59D090F83830012B57D0012380F817
:1037800038300023C363222380F83A30FDF7FEFC73
:103790000746A4F82C80A4F82E80A368B3F5805FB8
:1037A00005D04FF00008002384F8383016E0236974
:1037B00013B14FF00008F6E7A8460025F3E72368A9
:1037C0005B68C3F3080328F8023B03E023685B68E7
:1037D0002B700135E38D013B9BB2E385E38D9BB2FA
:1037E000BBB100963B46002220212046FFF7B0FEE9
:1037F000F0B9002DE3D0A368B3F5805FE6D013B92C
:103800002369002BE2D023685B6803F07F032B70F1
:10381000DFE7202384F83A30002000E0022002B0E5
:10382000BDE8F0810120FAE70120F8E70220F6E781
:103830000320F4E730B583B090F83A40E4B2202C8E
:103840003DD100293ED0002A3ED090F83830012BDF
:103850003CD013460A460446012180F838108262A3
:1038600083850025C563222180F83A10416B1848F2
:103870008862616B1748C862616B17480863616BA7
:103880004D6321680431606BFEF720FB01952368CE
:103890001A6801925A680192019A84F83850DA68DD
:1038A00042F48072DA602268536943F00103536185
:1038B0002268536943F040035361284600E0022028
:1038C00003B030BD0120FBE70120F9E70220F7E754
:1038D000FB380008CD390008D9390008704708B511
:1038E0000168CB6823F04003CB60202380F8393097
:1038F000FFF7F4FF002008BD704708B5436A02686F
:10390000126812F0200F13D10022DA851968CA68F4
:1039100022F48072CA6019684A6922F001024A6181
:1039200019684A6922F040024A61202283F83A204D
:103930001846FFF7E1FF08BD08B590F83A30DBB252
:10394000222B40D18368B3F5805F13D0826AB3F530
:10395000805F02D0DBB90369CBB903685B68137081
:10396000836A01338362C38D013B9BB2C385A3B1DC
:10397000002029E00269002AE8D1826A03685B68B6
:10398000C3F308031380836A02338362EBE703689F
:103990005B6803F07F031370E2E70268D36823F0EB
:1039A0002003D3600268D36823F48073D360026875
:1039B000536923F001035361202380F83A30FFF765
:1039C0009BFF002000E0022008BD704708B5406A58
:1039D000FFF7FBFF08BD704710B5446A23685A69BA
:1039E00094F83930DBB2212B10D023685A6902F0E9
:1039F000400294F83A30DBB2222B11D0E36B43F053
:103A00001003E3632046FFF7E6FF10BD02F08002DB
:103A1000002AEAD00023E3842046FFF709FDE4E70B
:103A2000002AEBD00023E3852046FFF70AFDE5E7F7
:103A300010B5044602681368D168526913F00F008C
:103A400005D113F0200F02D011F0200F56D100281D
:103A50006AD012F0010202D111F4907F64D013F009
:103A6000010F06D011F4807F03D0E06B40F001001D
:103A7000E06313F0040F04D01AB1E06B40F00200D1
:103A8000E06313F0020F04D01AB1E06B40F00400C1
:103A9000E06313F0080F07D011F0200F00D11AB126
:103AA000E26B42F00802E263E26B002A48D013F0B6
:103AB000200F02D011F0200F24D123685B6903F09E
:103AC0004003E26B12F0080F00D13BB32046FFF732
:103AD000B8FC23685A6912F0400F1BD05A6922F0D3
:103AE00040025A61636B8BB11A4A5A63606BFEF7EE
:103AF00027FA28B3606B436B984721E02046FFF715
:103B00001BFF1DE02046FFF717FFD6E72046FFF713
:103B100062FF15E02046FFF75EFF11E02046FFF749
:103B20005AFF0023E3630BE013F0800F02D011F083
:103B3000800F06D113F0400F02D011F0400F04D1D6
:103B400010BD2046FFF78BFCFAE72046FFF7C7FEC3
:103B5000F6E700BF593B000808B5406A0023C3855B
:103B6000C384FFF738FF08BDEFF305839BB9EFF37C
:103B700010839BB90C4B1B68022B05D08BB90A4BE9
:103B800001221A6000207047EFF31182002AF5D05D
:103B90006FF0050070476FF0050070476FF005008B
:103BA00070474FF0FF3070474401002008B5EFF335
:103BB0000583B3B9EFF31083B3B90E4B1B68022B27
:103BC00008D0012B13D10B4B02221A6000F030FEFB
:103BD000002008BDEFF31182002AF2D06FF005003B
:103BE000F7E76FF00500F4E76FF00500F1E74FF03D
:103BF000FF30EEE744010020F0B587B000240494C4
:103C0000EFF305844CBBEFF3108333BB334B1B68DE
:103C1000022B25D008B300238DF8173092B3166815
:103C20001EB3946904B91824631E372B52D8536805
:103C300013F0010F50D15569D5B14FEA950C936837
:103C40002BB1D7685B2F02D9176907B10DBB93B1B0
:103C50004FF0FF35012D23D075B3049807B0F0BDA8
:103C6000EFF31183002BF8D1D4E70DF11706D8E755
:103C70004FF0800CE3E7D3686BB9136973B14FF071
:103C8000FF35E7E7002518244FF0800C0DF11706EB
:103C9000E0E70125DEE74FF0FF35DBE70025D9E758
:103CA000136992680292019300940B466246314672
:103CB00000F052FD0490D0E704AA019200940B4654
:103CC0001FFA8CF2314600F080FD0128C5D0002398
:103CD0000493C2E70020C1E70020BFE744010020B1
:103CE00008B5EFF30583A3B9EFF31083A3B90C4B29
:103CF0001B68022B02D040B9002008BDEFF31183EE
:103D0000002BF8D06FF00500F7E700F0E5FE00208B
:103D1000F3E76FF00500F0E76FF00500EDE700BF97
:103D20004401002010B4044B1C1D046060330B6080
:103D30008023136010BC70474401002010B4064B70
:103D400003F51874046003F52F730B604FF4807350
:103D5000136010BC704700BF4401002000F108034D
:103D600043604FF0FF328260C36003610023036051
:103D7000704700230361704743684B609A688A600C
:103D80009A68516099600861036801330360704765
:103D900030B40D68B5F1FF3F02D000F1080202E037
:103DA000026904E01A4653681C68AC42FAD95368A9
:103DB0004B6099608A605160086103680133036059
:103DC00030BC7047036942688168916082684168CD
:103DD00051605A68824206D0002202611A68013A94
:103DE0001A601868704782685A60F5E710B5044693
:103DF00001F080FAA26BE36B9A4204D0002401F038
:103E00009BFA204610BD0124F9E710B5044601F0E5
:103E100071FAA36B23B1002401F08EFA204610BD85
:103E20000124F9E770B504461646856B026C5AB951
:103E300003681BB100200135A56370BD406800F028
:103E4000A5FF00236360F6E76EB9806803F072FC9B
:103E5000226CA3681344A3606268934219D3236859
:103E6000A3600020E7E7C06803F064FC226C5242C4
:103E7000E3681344E36021688B4202D263681A440A
:103E8000E260022E01D00020D5E725B1013D0020DF
:103E9000D1E70020CFE70020CDE7026C72B110B56A
:103EA000C3681344C3604468A34201D30368C3607A
:103EB0000C46C168204603F03DFC10BD704738B584
:103EC000054601F017FA95F8454064B203E000F0AA
:103ED00045FF013C64B2002C08DD6B6A33B105F18B
:103EE000240000F09FFE0028F3D0F0E7FF2385F8C0
:103EF000453001F021FA01F0FDF995F8444064B233
:103F000003E000F02BFF013C64B2002C08DD2B69BC
:103F100033B105F1100000F085FE0028F3D0F0E782
:103F2000FF2385F8443001F007FA38BD38B540B9B1
:103F30004FF0500383F31188BFF36F8FBFF34F8FA0
:103F4000FEE704460D4601F0D5F92168E26B236CCB
:103F500003FB021060600020A063A160013A02FB35
:103F60000313E360FF2384F8443084F84530A5B997
:103F700023691BB901F0E0F9012038BD04F11000FC
:103F800000F050FE0028F5D0084B4FF080521A6028
:103F9000BFF34F8FBFF36F8FECE704F11000FFF713
:103FA000DDFE04F12400FFF7D9FEE3E704ED00E0B5
:103FB00038B51D46049C0B4649B12260E06323647A
:103FC00001212046FFF7B2FF84F84C5038BD246031
:103FD000F4E740B94FF0500383F31188BFF36F8FBC
:103FE000BFF34F8FFEE710B584B0044653B192B1D2
:103FF00089B94FF0500383F31188BFF36F8FBFF37C
:104000004F8FFEE74FF0500383F31188BFF36F8F9C
:10401000BFF34F8FFEE74AB941B14FF0500383F32E
:104020001188BFF36F8FBFF34F8FFEE750200390CF
:104030000398502808D04FF0500383F31188BFF342
:104040006F8FBFF34F8FFEE720461C46012384F895
:10405000463000949DF81830FFF7AAFF204604B0C0
:1040600010BD0000F0B585B0019260B1044699B969
:10407000026C8AB14FF0500383F31188BFF36F8F46
:10408000BFF34F8FFEE74FF0500383F31188BFF368
:104090006F8FBFF34F8FFEE7022B0BD1E26B012A2C
:1040A00008D04FF0500383F31188BFF36F8FBFF335
:1040B0004F8FFEE71E460F4600F058FE50B9019B99
:1040C00053B14FF0500383F31188BFF36F8FBFF3E9
:1040D0004F8FFEE700253AE0002538E032463946AA
:1040E0002046FFF79FFE636A4BB9A8B13B4B4FF0E8
:1040F00080521A60BFF34F8FBFF36F8F0CE004F153
:10410000240000F08FFD38B1344B4FF080521A601C
:10411000BFF34F8FBFF36F8F01F00EF9012005B091
:10412000F0BD01F009F90020F9E702A800F0BEFD9A
:10413000012519E0002384F8443021E0002384F8AD
:10414000453023E02046FFF7BAFE00F04DFC01F0B9
:10415000D1F8A26BE36B9A42C0D3022EBED0019B72
:10416000002BDED0002DE0D001F0E6F800F0A6FB39
:1041700001F0C0F894F844305BB2B3F1FF3FD9D0FE
:1041800094F845305BB2B3F1FF3FD7D001F0D4F8DB
:1041900001A902A800F094FDC8B92046FFF726FE49
:1041A0000028CFD0019904F1100000F003FD204653
:1041B000FFF785FE00F018FC0028C8D1074B4FF030
:1041C00080521A60BFF34F8FBFF36F8FBFE7204657
:1041D000FFF775FE00F008FC0020A0E704ED00E00A
:1041E0002DE9F84360B1044699B9006C88B14FF0ED
:1041F000500383F31188BFF36F8FBFF34F8FFEE738
:104200004FF0500383F31188BFF36F8FBFF34F8FCD
:10421000FEE7022B0BD1E06B012808D04FF05003D2
:1042200083F31188BFF36F8FBFF34F8FFEE71F46F5
:104230009046894601F04AF9EFF311864FF050039A
:1042400083F31188BFF36F8FBFF34F8FA26BE36BC4
:104250009A4203D3022F01D000200FE094F845507A
:104260006DB23A4649462046FFF7DCFDB5F1FF3F07
:1042700008D06B1C5BB284F84530012086F31188AE
:10428000BDE8F883636A5BB104F1240000F0CAFC66
:1042900040B1B8F1000F07D00120C8F80000EDE7E9
:1042A0000120EBE70120E9E70120E7E7F0B585B061
:1042B000019260B1044699B9036C8BB14FF0500381
:1042C00083F31188BFF36F8FBFF34F8FFEE74FF07B
:1042D000500383F31188BFF36F8FBFF34F8FFEE757
:1042E0000F4600F043FD50B9019B53B14FF050030E
:1042F00083F31188BFF36F8FBFF34F8FFEE7002664
:104300003EE000263CE039462046FFF7C6FD013D71
:10431000A563236923B901F00FF8012005B0F0BDB2
:1043200004F1100000F07EFC0028F4D0344B4FF074
:1043300080521A60BFF34F8FBFF36F8FEBE700F02F
:10434000FBFF0020EAE702A800F0B0FC012621E014
:10435000002384F8443029E0002384F845302BE022
:104360002046FFF7ACFD00F03FFB09E02046FFF7D9
:10437000A6FD00F039FB2046FFF747FD00283DD1A0
:1043800000F0B8FFA56B002DBDD1019B002BD6D04E
:10439000002ED8D000F0D0FF00F090FA00F0AAFF75
:1043A00094F844305BB2B3F1FF3FD1D094F845307C
:1043B0005BB2B3F1FF3FCFD000F0BEFF01A902A86E
:1043C00000F07EFC0028D1D12046FFF71EFD00281A
:1043D000C6D0019904F1240000F0ECFB2046FFF761
:1043E0006EFD00F001FB0028CAD1054B4FF0805252
:1043F0001A60BFF34F8FBFF36F8FC1E700208DE7C7
:1044000004ED00E00023072B0CD8074A52F83320B4
:104410000AB10133F7E7044A42F8331002EBC30351
:1044200058607047704700BF4822002070B50446AE
:104430000D46164600F05EFF94F844305BB2B3F1CF
:10444000FF3F0DD094F845305BB2B3F1FF3F0BD086
:1044500000F072FFA36B5BB12046FFF730FD70BD2B
:10446000002384F84430EDE7002384F84530EFE77B
:104470003246294604F1240000F0B6FBECE70000C8
:10448000074B9B6A1B6833B1054B9A6AD268D268A6
:104490005268DA627047024B4FF0FF32DA627047BF
:1044A000000800202DE9F04781460D4617469A4640
:1044B000089EDDF824800A9C9200A521206B03F061
:1044C00044F9236B07F18042013A03EB820727F09E
:1044D000070700230F2B07D8E95CE21882F8341095
:1044E000EA5C0AB10133F5E7002384F84330372E44
:1044F00000D93726E662E66400252565201DFFF712
:1045000038FC04F11800FFF734FC2461C6F13806CA
:10451000A6616462656584F8585084F85A50524622
:104520004946384600F0C0FE2060B8F1000F01D0C7
:10453000C8F80040BDE8F08770B5002407E004EB40
:104540008402930010481844FFF708FC0134372C0C
:10455000F5D90E4C04F592663046FFF7FFFB04F2E6
:10456000A4452846FFF7FAFB04F11400FFF7F6FB19
:1045700004F59760FFF7F2FB2046FFF7EFFBA6621A
:10458000C4F8CC5470BD00BF3008002000080020E3
:1045900038B5044600F0AEFE274BD3F8D0240132E4
:1045A000C3F8D024D3F8D43473B1234BD3F8D83420
:1045B0008BB9214BD3F8D434DA6AE36A9A420AD829
:1045C0001D4BC3F8D44406E01B4BC3F8D444D3F8C6
:1045D000D034012B2CD0184AD2F8DC340133C2F885
:1045E000DC346364E36AD2F8E024934202D9124ACD
:1045F000C2F8E034104D05F1300003EB83039A005C
:10460000211D1044FFF7B8FB00F096FED5F8D83412
:104610006BB1D5F8D434DA6AE36A9A4207D2074B11
:104620004FF080521A60BFF34F8FBFF36F8F38BDCA
:10463000FFF782FFCFE700BF0008002004ED00E095
:1046400010B5044690F8593033B9006B01F032F8D8
:10465000204601F02FF810BD012B0AD0022BFAD012
:104660004FF0500383F31188BFF36F8FBFF34F8F69
:10467000FEE701F01FF8EEE738B517E000F03AFE6C
:104680000D4CD4F8C434DD68281DFFF79BFBD4F82B
:10469000D034013BC4F8D034D4F8E434013BC4F83E
:1046A000E43400F049FE2846FFF7CAFF024BD3F876
:1046B000E434002BE2D138BD0008002008B5FFF734
:1046C000DBFF064B1B6B012BF9D9054B4FF08052DA
:1046D0001A60BFF34F8FBFF36F8FF0E70008002021
:1046E00004ED00E070B504460E461A4BD3F8E854CA
:1046F000D3F8D424002182F85A10D3F8D40404301B
:10470000FFF760FBB4F1FF3F12D02C44114BD3F8FC
:10471000D4345C60A54214D80E4DA86AD5F8D414E0
:104720000431FFF735FBEB6AA34212D9EC6210E0CB
:10473000002EEAD00748D0F8D4140431FFF71CFB50
:1047400007E0044BD3F8CC04D3F8D4140431FFF7BA
:104750001FFB70BD0008002070B586B00B9D0C9C3F
:1047600045B94FF0500383F31188BFF36F8FBFF348
:104770004F8FFEE744B94FF0500383F31188BFF326
:104780006F8FBFF34F8FFEE75C260496049E5C2E6E
:1047900008D04FF0500383F31188BFF36F8FBFF33E
:1047A0004F8FFEE72563022584F8595000250395B5
:1047B000029405AD01950A9D0095FFF773FE204612
:1047C000FFF7E6FE059806B070BD2DE9F04385B011
:1047D0000746884615469946900000F0F1FE08B35A
:1047E00006465C2000F0ECFE0446B8B10663E4B176
:1047F000002384F85930039302940D9B01930C9B82
:1048000000934B462A4641463846FFF74BFE20466A
:10481000FFF7BEFE012005B0BDE8F083304600F092
:1048200049FFE4E74FF0FF30F5E74FF0FF30F2E7E4
:1048300010B588B000240594069407AA06A905A817
:10484000FFF770FA059B0293069B019300942346A1
:10485000079A17491748FFF77FFF40B100F03EFB6A
:10486000012806D0B0F1FF3F18D008B010BD0020DD
:10487000F6E74FF0500383F31188BFF36F8FBFF358
:104880004F8F0D4B4FF0FF32DA620122C3F8D8246C
:104890000022C3F8E82400F0BFFDE6E74FF0500324
:1048A00083F31188BFF36F8FBFF34F8FFEE700BF15
:1048B00068850008BD46000800080020034AD2F8B9
:1048C000EC340133C2F8EC34704700BF000800201C
:1048D000014BD3F8E8047047000800202DE9F041AF
:1048E000404BD3F8EC34002B6DD13E4BD3F8E85459
:1048F0000135C3F8E854CDB99B6A1B6843B14FF04A
:10490000500383F31188BFF36F8FBFF34F8FFEE720
:10491000344B9A6AD3F8CC149962C3F8CC24D3F8F8
:10492000F0240132C3F8F024FFF7AAFD2D4BDB6A17
:10493000AB423ED900242B4AD2F8D434DB6A03EBD5
:10494000830399000A44136B012B43D9012441E0EE
:104950000124244B9B6A1B686BB3224B9B6ADB6868
:10496000DE6873689D422BD306F104084046FFF7CA
:1049700029FAB36A1BB106F11800FFF723FAF36AAC
:10498000184AD2F8E024934202D9164AC2F8E03419
:10499000144F07F1300003EB83039A0041461044A3
:1049A000FFF7EAF9F26AD7F8D434DB6A9A42CFD239
:1049B000CFE70024CDE70B4B4FF0FF32DA62BAE7C6
:1049C000084AD362B7E7074AD2F8F4340133C2F891
:1049D000F4340024034BD3F8F83403B10124204607
:1049E000BDE8F08100080020394BD3F8EC3443B91E
:1049F0004FF0500383F31188BFF36F8FBFF34F8FD6
:104A0000FEE770B500F076FC314BD3F8EC24013AA8
:104A1000C3F8EC24D3F8EC34002B54D12C4BD3F84E
:104A2000D03423B9002400F087FC204670BD002458
:104A3000274B5B692BB3264D2B6ADC6804F1180009
:104A4000FFF7C0F9261D3046FFF7BCF9E36AD5F839
:104A5000E024934201D9C5F8E0341D4D05F1300042
:104A600003EB83039A0031461044FFF785F9E26AAD
:104A7000D5F8D434DB6A9A42DAD30122C5F8F82497
:104A8000D6E70CB1FFF7FCFC114BD3F8F44464B14A
:104A9000FFF724FF18B10E4B0122C3F8F824013CA4
:104AA000F6D10B4B0022C3F8F424094BD3F8F834A9
:104AB0005BB1084B4FF080521A60BFF34F8FBFF3CA
:104AC0006F8F0124AFE70024ADE70024ABE700BF00
:104AD0000008002004ED00E010B5B0B104460F4B13
:104AE000D3F8EC3443B14FF0500383F31188BFF394
:104AF0006F8FBFF34F8FFEE7FFF7E0FE00212046E8
:104B0000FFF7F0FDFFF770FF38B9054B4FF080520B
:104B10001A60BFF34F8FBFF36F8F10BD00080020E6
:104B200004ED00E0224BD3F8EC3423B1204B0122FA
:104B3000C3F8F82470471E4B0022C3F8F824D3F8BA
:104B4000E03403EB83029100194A0A44126B5AB90C
:104B50000BB1013BF5E74FF0500383F31188BFF32E
:104B60006F8FBFF34F8FFEE710B4114A9900CC1836
:104B7000A0001044446B64684463303219448800D8
:104B80000830024494420CD0094903EB83008200B0
:104B90000A44526BD268C1F8D424C1F8E03410BC86
:104BA000704761680248142202FB03025163EBE77D
:104BB0000008002040B94FF0500383F31188BFF381
:104BC0006F8FBFF34F8FFEE710B50C46054BD3F840
:104BD000D4141831FFF7DCF801212046FFF782FDDD
:104BE00010BD00BF0008002038B540B94FF0500399
:104BF00083F31188BFF36F8FBFF34F8FFEE70C462F
:104C00001546074AD2F8D4141831FFF7B5F80DB19C
:104C10004FF0FF3429462046FFF764FD38BD00BF42
:104C20000008002038B5C368DC6844B94FF0500371
:104C300083F31188BFF36F8FBFF34F8FFEE704F14B
:104C400018052846FFF7BEF8154BD3F8EC3403BB24
:104C5000251D2846FFF7B6F8E36A114AD2F8E0248A
:104C6000934202D90E4AC2F8E03403EB83039A0060
:104C700029460C481044FFF77FF8E26A084BD3F846
:104C8000D434DB6A9A4209D90120054BC3F8F804F1
:104C900038BD29460448FFF76FF8EEE70020F7E734
:104CA000000800203008002014080020034BD3F82F
:104CB000F0240260D3F8E834436070470008002015
:104CC000F8B550B1054689B94FF0500383F3118808
:104CD000BFF36F8FBFF34F8FFEE74FF0500383F3A7
:104CE0001188BFF36F8FBFF34F8FFEE70C4600F0C4
:104CF00001FB194BD3F8E81468680A1AD3F8D434C6
:104D000093F85A30A3B92368B3F1FF3F1FD02F683F
:104D1000114ED6F8F064B74201D0884219D99342B7
:104D200011D99B1A23602846FFF7C0FF002406E034
:104D3000094BD3F8D434002283F85A20012400F020
:104D4000FBFA2046F8BD002323600124F7E7002486
:104D5000F5E70124F3E700BF00080020024B012221
:104D6000C3F8F824704700BF00080020064BD3F8B2
:104D7000D8343BB1044BD3F8EC340BB1002070476E
:104D800002207047012070470008002000283BD017
:104D900038B504461F4AD2F8D424824208D04FF0D6
:104DA000500383F31188BFF36F8FBFF34F8FFEE77C
:104DB000026D42B94FF0500383F31188BFF36F8F38
:104DC000BFF34F8FFEE7013A0265C06AE16C88428B
:104DD0001CD0EAB9251D2846FEF7F4FFE36CE36218
:104DE000C3F13802A2610B4AD2F8E024934202D9FF
:104DF000084AC2F8E0342946074A142000FB032081
:104E0000FEF7BAFF012038BD002070470020FAE706
:104E10000020F8E70008002030080020064B1A6840
:104E20001368B3FA83F35B09036013B9D368186896
:104E300070470020704700BFFC0C002008B541609F
:104E4000006191420CD8D21A83699A4201D30120A1
:104E500010E0011D094B5868FEF79AFF002009E099
:104E60009A4201D2994206D2011D044B1868FEF7FE
:104E70008FFF002008BD0120FCE700BFFC0C0020D4
:104E800070B582B000F036FA124B9B681BB100F08F
:104E900053FA02B070BD0F4C04F10C063046FEF719
:104EA0005DFF04F120052846FEF758FF2660656087
:104EB0000023009304F1340304F1840210210A203A
:104EC000FFF787F8A0600028E1D00349FFF79AFABE
:104ED000DDE700BFFC0C00207085000810B588B02D
:104EE000FFF7CEFF134B9B68D3B1002405940694C3
:104EF00007AA06A905A8FEF721FF059B0293069BBA
:104F00000193022300932346079A0B490B48FFF7AE
:104F100023FC084BC3F8240110B1012008B010BDD8
:104F20004FF0500383F31188BFF36F8FBFF34F8FA0
:104F3000FEE700BFFC0C0020788500083152000815
:104F4000C8B130B585B015460446174A906840B3DD
:104F50001A4600910195029405291DDCFFF706FF12
:104F6000022811D000231A4669460F488068FFF7CF
:104F700079F805B030BD4FF0500383F31188BFF3CB
:104F80006F8FBFF34F8FFEE70023089A69460648EC
:104F90008068FFF767F8ECE700236946FFF720F920
:104FA000E7E70020E5E700BFFC0C0020204B1B6872
:104FB0001A68002A37D070B582B0DB681E68DC68DA
:104FC000251D2846FEF7FEFE636A20469847E369E2
:104FD000012B0AD0164B1B681A68002AEDD1144A1F
:104FE00051681160536002B070BDA36933449E42A2
:104FF00007D26360246129460D4B1868FEF7C8FE8E
:10500000E8E7002100910B4632462046FFF798FF63
:105010000028DFD14FF0500383F31188BFF36F8F67
:10502000BFF34F8FFEE7024A51681160536070472B
:10503000FC0C002038B50546FFF74AFC0446084B37
:10504000D3F82831834206D800232B60044BC3F8E1
:105050002841204638BDFFF7A9FF01232B60F5E763
:10506000FC0C002070B582B005460E46144B1B6840
:10507000DB68DC68201DFEF7A5FEE369012B04D088
:10508000636A2046984702B070BDA1692B4632463C
:1050900029442046FFF7D2FE0028F1D000210091DC
:1050A0000B462A462046FFF74BFF0028E8D14FF079
:1050B000500383F31188BFF36F8FBFF34F8FFEE769
:1050C000FC0C002070B582B006460C46FFF7F6FBDC
:1050D00001A8FFF7AFFF019B1BBB05460CB9B0420F
:1050E00018D22CB1114B5B681C68B4FA84F46409C3
:1050F0002246711B0D4B9868FFF798F9FFF774FC77
:1051000088B90B4B4FF080521A60BFF34F8FBFF33B
:105110006F8F08E0FFF768FC29463046FFF7A2FFD3
:1051200001E0FFF761FC02B070BD00BFFC0C002085
:1051300004ED00E030B589B002E0049B002B0FDAEB
:10514000002204A9394B9868FFF7B0F800286AD00C
:10515000049B002BF1DA07990698059B9847ECE72A
:10516000069C636913B1201DFEF72CFE03A8FFF710
:1051700061FF049B092BE3D801A252F823F000BF82
:10518000A9510008A9510008A9510008415100087F
:10519000F151000817520008A9510008A951000850
:1051A00041510008F15100080599A5690B460246D6
:1051B00029442046FFF742FE0028C1D0636A2046FA
:1051C0009847E369012BBBD1A269002100910B46EE
:1051D000059802442046FFF7B3FE0028B0D14FF0F7
:1051E000500383F31188BFF36F8FBFF34F8FFEE738
:1051F0000599A16131B10346024601442046FFF7FB
:105200001DFE9DE74FF0500383F31188BFF36F8FAE
:10521000BFF34F8FFEE794F82C30002B90D120463F
:1052200000F048FA8CE709B030BD00BFFC0C00204C
:1052300000B583B001A8FFF7F1FD0199FFF742FF28
:10524000FFF778FFF6E7000082B0002301930D4BD3
:105250001B68B3F1FF3F08D04FF0500383F3118870
:10526000BFF36F8FBFF34F8FFEE74FF0500383F311
:105270001188BFF36F8FBFF34F8F019B002BFCD0C2
:1052800002B070470800002006480068006880F3FC
:10529000088862B661B6BFF34F8FBFF36F8F00DF30
:1052A00000BF000008ED00E04FF0807340F8043CC0
:1052B00021F0010140F8081C034B40F80C3C40F879
:1052C000202C4038704700BF495200080000000001
:1052D000074B19680868B0E8F00F80F30988BFF33E
:1052E0006F8F4FF0000080F311884EF00D0E704765
:1052F000D40C00204FF0500383F31188BFF36F8F5D
:10530000BFF34F8F0A4A136801331360012B00D09B
:105310007047084B1B6813F0FF0FF9D04FF0500394
:1053200083F31188BFF36F8FBFF34F8FFEE700BF8A
:105330000800002004ED00E0094B1B6843B94FF062
:10534000500383F31188BFF36F8FBFF34F8FFEE7D6
:10535000013B034A13600BB983F31188704700BF08
:105360000800002000000000000000000000000015
:10537000EFF30980BFF36F8F0D4B1A6820E9F00F30
:1053800010602DE908404FF0500080F31188FFF7BE
:10539000C9FB4FF0000080F31188BDE80840196890
:1053A0000868B0E8F00F80F30988BFF36F8F70478B
:1053B000D40C002008B54FF0500383F31188BFF3DD
:1053C0006F8FBFF34F8FFFF789FA18B1034B4FF080
:1053D00080521A60002383F3118808BD04ED00E0B9
:1053E000084A0023136008490B60084B1B680849F2
:1053F000A1FB03139B09013B06490B6007231360C4
:10540000704700BF10E000E018E000E0B8000020A6
:10541000D34D621014E000E010B582B0274B1A782B
:10542000D2B20192FF221A701B78DBB28DF80330E2
:105430009DF8033003F05003214A13700723536093
:1054400009E01F4A5368013B53609DF803305B003D
:10545000DBB28DF803309DF8033013F0800FF0D1EC
:10546000174B5B68032B08D04FF0500383F3118870
:10547000BFF36F8FBFF34F8FFEE71B0203F4E063B0
:105480000F4A5360019BDBB20C4A13700D4B1A6834
:1054900042F470021A601A6842F070421A60FFF714
:1054A0009FFF0024084B1C60FFF7EEFEFFF73AFB5E
:1054B000FFF7CAFE204602B010BD00BF00E400E0C6
:1054C000280E002020ED00E008000020EFF3058307
:1054D0000F2B0FD9104A9B5CDBB2104A12789A420C
:1054E00008D94FF0500383F31188BFF36F8FBFF3D8
:1054F0004F8FFEE70A4B1B6803F4E063074A5268CC
:10550000934208D94FF0500383F31188BFF36F8F94
:10551000BFF34F8FFEE77047F0E300E0280E002056
:105520000CED00E0104A12F0070F1AD0D11D21F047
:105530000701C1F59E5313440A460C490A60002036
:1055400048601344083B23F007038B6058601860E1
:10555000981A50601360C86008614FF000434B61B7
:1055600070474FF49E53E8E7480E0020300E0020AD
:1055700010B4124B1A6882421AD359685C188442DC
:1055800003D1406801445960184641684418A2425A
:1055900012D10A4CA468A2420CD052681144416056
:1055A0001A6812680260984200D0186010BC7047F8
:1055B0001346DFE70460F6E70260F4E7300E0020F0
:1055C00070B50446FFF77AF9394B9B68BBB1384B8D
:1055D0005B691C4262D1ACB1083414F0070F11D0E2
:1055E00024F00704083404F007035BB14FF05003C4
:1055F00083F31188BFF36F8FBFF34F8FFEE7FFF781
:1056000091FFE4E7002C4BD0294B1B69A34249D3FF
:10561000274B1D6801E02B4615466A68A24202D25C
:105620002A68002AF7D1224A9268AA423CD01E6812
:1056300008362A681A606B681B1B102B10D92819B2
:1056400010F0070F08D04FF0500383F31188BFF319
:105650006F8FBFF34F8FFEE743606C60FFF788FFEB
:105660006968134A13695B1A1361D268934201D2C5
:105670000F4AD3600E4B5B690B436B6000232B60BA
:10568000FFF7B2F916F0070F10D04FF0500383F375
:105690001188BFF36F8FBFF34F8FFEE70026EFE750
:1056A0000026EDE70026EBE70026E9E7304670BD6F
:1056B000300E002080B338B50446A0F1080550F83C
:1056C000042C164949690A4208D14FF0500383F36C
:1056D0001188BFF36F8FBFF34F8FFEE750F8080CB0
:1056E00040B14FF0500383F31188BFF36F8FBFF3C6
:1056F0004F8FFEE722EA010244F8042CFFF7DEF8A0
:1057000054F8041C054A13690B4413612846FFF73B
:105710002FFFFFF769F938BD704700BF300E00203A
:1057200030B589B00023049305930693079302686C
:105730002B4B9A4201D009B030BD044603F56C43AF
:105740009A6942F400729A619A6902F400720192B5
:10575000019A9A6942F004029A619A6902F004027D
:105760000292029A9A6942F008029A619B6903F0D8
:1057700008030393039B0F2304930325059504A9B2
:105780001848FCF755FD02230493059504A9164813
:10579000FCF74EFD1548164B036000234360836001
:1057A0008023C3604FF4007303614FF400634361CF
:1057B000202383614FF44053C361FCF751FB58B978
:1057C0000A4B23625C62002201211220FCF7F0FAEE
:1057D0001220FCF721FBAEE701F0B6FDF0E700BFB9
:1057E0000024014000080140000C0140B8220020C4
:1057F000080002402DE9F04105460C4610F0010F6B
:1058000007D115F0020F4FD115F0040F7BD1BDE881
:10581000F081CB6A1B684FF418721A80CB6A1B6840
:1058200001229A70C86A00F0ABFE002614E0013332
:10583000DBB2032B0ED8BA1C54F8222003F1180156
:1058400002EB4102D288B4F846108A42EFD9A4F89C
:105850004620ECE70136F6B2082ED2D8374606F1DC
:10586000020854F82820E16A012000F0F9FF54F8FA
:1058700028309B8AB4F84020934201D2A4F84030EB
:10588000BB1C54F823305B8AB4F84220934201D900
:10589000A4F84230BB1C54F82330B3F84230E28FF6
:1058A0001344E3870023C4E7E36A1B684FF48C6268
:1058B0001A80E36A1B6801229A70E06A00F060FEB9
:1058C000002614E00133DBB2032B0ED8BA1C54F8C7
:1058D000222003F1180102EB4102D288B4F84610ED
:1058E0008A42EFD9A4F84620ECE70136F6B2082E3A
:1058F0008AD83746B31C54F82320E16A022000F00E
:10590000AFFF0023E0E7E36A1B684FF48D621A8063
:10591000E36A1B6801229A70E06A00F031FE0025FC
:105920000FE0AE1C54F82620E16A042000F098FF36
:1059300054F82630B3F84230E28F1344E387013540
:10594000EDB2082DEDD9E38F024AA2FB03235B08D9
:10595000E3875CE7ABAAAAAA70B5044600210AE077
:1059600001EB81021A442248002520F8125001332D
:10597000042BF5DD0131052901DC0023F8E7214680
:105980000220FFF737FF002528460CE0AA1C54F838
:10599000222003F1180102EB4102D28810440133A6
:1059A000042BF3DD0135052D01DC0023F8E7FBF7BF
:1059B00091F91049FBF79AFAFBF7AAFB002512E0D0
:1059C000AA1C54F8222003F1180102EB4102D188ED
:1059D000411A05EB85021A44054E26F812100133D0
:1059E000042BEDDD0135052D01DC0023F8E770BD4A
:1059F000042300200000F04110B4BDF80440017001
:105A0000090A41708270120AC27003711B0A437145
:105A10008471240AC47110BC7047000070B582B054
:105A20000646002540E00134E4B2022C3AD8AB1C13
:105A300056F82330A20002F10C0103EB4101C988A2
:105A40008DF80010090A8DF8011002F10D0103EB29
:105A50004101C9888DF80210090A8DF8031002F17E
:105A60000E0103EB4101C9888DF80410090A8DF875
:105A700005100F3203EB4203DB888DF806301B0A5A
:105A80008DF8073005EB850323440A4A52F823308A
:105A90006A4609490948FBF7B9FF0028C3D001F05D
:105AA00053FCC0E70135EDB2052D01D80024BCE759
:105AB00002B070BD0C000020642900204C2300209F
:105AC00030B583B00546002401E00134E4B2052C72
:105AD0002AD8A31C55F82330DA8E8DF80020120A3C
